{
  "address": "0xEdD65e9caF67ebA0c8F0ED5DB6a995ce18469f37",
  "abi": [
    {
      "inputs": [
        {
          "internalType": "contract IERC20",
          "name": "_lunar",
          "type": "address"
        },
        {
          "internalType": "uint256",
          "name": "_start",
          "type": "uint256"
        },
        {
          "internalType": "uint256",
          "name": "_end",
          "type": "uint256"
        },
        {
          "internalType": "uint256",
          "name": "_totalDistributeAmount",
          "type": "uint256"
        },
        {
          "internalType": "uint256",
          "name": "_minimalProvideAmount",
          "type": "uint256"
        }
      ],
      "stateMutability": "nonpayable",
      "type": "constructor"
    },
    {
      "anonymous": false,
      "inputs": [
        {
          "indexed": true,
          "internalType": "address",
          "name": "account",
          "type": "address"
        },
        {
          "indexed": false,
          "internalType": "uint256",
          "name": "userShare",
          "type": "uint256"
        },
        {
          "indexed": false,
          "internalType": "uint256",
          "name": "lunarAmount",
          "type": "uint256"
        }
      ],
      "name": "Claimed",
      "type": "event"
    },
    {
      "anonymous": false,
      "inputs": [
        {
          "indexed": true,
          "internalType": "address",
          "name": "previousOwner",
          "type": "address"
        },
        {
          "indexed": true,
          "internalType": "address",
          "name": "newOwner",
          "type": "address"
        }
      ],
      "name": "OwnershipTransferred",
      "type": "event"
    },
    {
      "anonymous": false,
      "inputs": [
        {
          "indexed": true,
          "internalType": "address",
          "name": "account",
          "type": "address"
        },
        {
          "indexed": false,
          "internalType": "uint256",
          "name": "ethAmount",
          "type": "uint256"
        }
      ],
      "name": "Received",
      "type": "event"
    },
    {
      "inputs": [],
      "name": "claim",
      "outputs": [],
      "stateMutability": "nonpayable",
      "type": "function"
    },
    {
      "inputs": [],
      "name": "end",
      "outputs": [
        {
          "internalType": "uint256",
          "name": "",
          "type": "uint256"
        }
      ],
      "stateMutability": "view",
      "type": "function"
    },
    {
      "inputs": [],
      "name": "lunar",
      "outputs": [
        {
          "internalType": "contract IERC20",
          "name": "",
          "type": "address"
        }
      ],
      "stateMutability": "view",
      "type": "function"
    },
    {
      "inputs": [],
      "name": "minimalProvideAmount",
      "outputs": [
        {
          "internalType": "uint256",
          "name": "",
          "type": "uint256"
        }
      ],
      "stateMutability": "view",
      "type": "function"
    },
    {
      "inputs": [],
      "name": "owner",
      "outputs": [
        {
          "internalType": "address",
          "name": "",
          "type": "address"
        }
      ],
      "stateMutability": "view",
      "type": "function"
    },
    {
      "inputs": [
        {
          "internalType": "address",
          "name": "",
          "type": "address"
        }
      ],
      "name": "provided",
      "outputs": [
        {
          "internalType": "uint256",
          "name": "",
          "type": "uint256"
        }
      ],
      "stateMutability": "view",
      "type": "function"
    },
    {
      "inputs": [],
      "name": "renounceOwnership",
      "outputs": [],
      "stateMutability": "nonpayable",
      "type": "function"
    },
    {
      "inputs": [],
      "name": "start",
      "outputs": [
        {
          "internalType": "uint256",
          "name": "",
          "type": "uint256"
        }
      ],
      "stateMutability": "view",
      "type": "function"
    },
    {
      "inputs": [],
      "name": "totalDistributeAmount",
      "outputs": [
        {
          "internalType": "uint256",
          "name": "",
          "type": "uint256"
        }
      ],
      "stateMutability": "view",
      "type": "function"
    },
    {
      "inputs": [],
      "name": "totalProvided",
      "outputs": [
        {
          "internalType": "uint256",
          "name": "",
          "type": "uint256"
        }
      ],
      "stateMutability": "view",
      "type": "function"
    },
    {
      "inputs": [
        {
          "internalType": "address",
          "name": "newOwner",
          "type": "address"
        }
      ],
      "name": "transferOwnership",
      "outputs": [],
      "stateMutability": "nonpayable",
      "type": "function"
    },
    {
      "inputs": [],
      "name": "withdrawLUNAR",
      "outputs": [],
      "stateMutability": "nonpayable",
      "type": "function"
    },
    {
      "inputs": [],
      "name": "withdrawProvidedETH",
      "outputs": [],
      "stateMutability": "nonpayable",
      "type": "function"
    },
    {
      "inputs": [],
      "name": "withdrawUnclaimedLUNAR",
      "outputs": [],
      "stateMutability": "nonpayable",
      "type": "function"
    },
    {
      "stateMutability": "payable",
      "type": "receive"
    }
  ],
  "transactionHash": "0x52d22524adecf68935fc747ef64fdc167250461382f8be153460a46028fa5fe1",
  "args": [
    "0x5Adc6eB6cf61A2BFef9AE6A64c7236F34dF3081a",
    1622419200,
    1622851200,
    "800000000000000000000000",
    "75000000000000000000"
  ],
  "solcInputHash": "27ec36c3d07e205983bb1c25c155e7c5",
  "bytecode": "0x610120604052600060015534801561001657600080fd5b506040516111c63803806111c68339810160408190526100359161009e565b600080546001600160a01b031916339081178255604051909182917f8be0079c531659141344cd1fd0a4f28419497f9722a3daafe3b4186f6b6457e0908290a35060609490941b6001600160601b0319166101005260809290925260a05260c05260e0526100f1565b600080600080600060a086880312156100b5578081fd5b85516001600160a01b03811681146100cb578182fd5b602087015160408801516060890151608090990151929a91995097965090945092505050565b60805160a05160c05160e0516101005160601c611034610192600039600081816103ee015281816105aa015281816107cf015261085b0152600081816103120152818161053d015281816108ef01526109e30152600081816102c9015261056d01526000818161016e015281816104370152818161047b01528181610721015281816108b101526109a501526000818160e901526103ba01526110346000f3fe6080604052600436106100e15760003560e01c80639ddb9ee11161007f578063d7e981c711610059578063d7e981c7146103dc578063e43608d814610410578063efbe1c1c14610425578063f2fde38b1461045957600080fd5b80639ddb9ee114610366578063a9a4a93414610393578063be9a6555146103a857600080fd5b80637ee05a3e116100bb5780637ee05a3e146102b75780637fc4a199146102eb5780638d975992146103005780638da5cb5b1461033457600080fd5b806302e3cb0b146102625780634e71d92d1461028b578063715018a6146102a257600080fd5b3661025d57427f0000000000000000000000000000000000000000000000000000000000000000111561016c5760405162461bcd60e51b815260206004820152602860248201527f4c554e4152204942434f3a206f66666572696e6720686173206e6f74207374616044820152671c9d1959081e595d60c21b60648201526084015b60405180910390fd5b7f00000000000000000000000000000000000000000000000000000000000000004211156101eb5760405162461bcd60e51b815260206004820152602660248201527f4c554e4152204942434f3a206f66666572696e672068617320616c726561647960448201526508195b99195960d21b6064820152608401610163565b34600160008282546101fd9190610f61565b90915550503360009081526002602052604081208054349290610221908490610f61565b909155505060405134815233907f88a5966d370b9919b20f3e2c13ff65706f196a4e32cc2c12bf57088f885258749060200160405180910390a2005b600080fd5b34801561026e57600080fd5b5061027860015481565b6040519081526020015b60405180910390f35b34801561029757600080fd5b506102a0610479565b005b3480156102ae57600080fd5b506102a061067d565b3480156102c357600080fd5b506102787f000000000000000000000000000000000000000000000000000000000000000081565b3480156102f757600080fd5b506102a06106f1565b34801561030c57600080fd5b506102787f000000000000000000000000000000000000000000000000000000000000000081565b34801561034057600080fd5b506000546001600160a01b03165b6040516001600160a01b039091168152602001610282565b34801561037257600080fd5b50610278610381366004610e38565b60026020526000908152604090205481565b34801561039f57600080fd5b506102a0610884565b3480156103b457600080fd5b506102787f000000000000000000000000000000000000000000000000000000000000000081565b3480156103e857600080fd5b5061034e7f000000000000000000000000000000000000000000000000000000000000000081565b34801561041c57600080fd5b506102a0610978565b34801561043157600080fd5b506102787f000000000000000000000000000000000000000000000000000000000000000081565b34801561046557600080fd5b506102a0610474366004610e38565b610aab565b7f000000000000000000000000000000000000000000000000000000000000000042116104b85760405162461bcd60e51b815260040161016390610f1b565b336000908152600260205260409020546105245760405162461bcd60e51b815260206004820152602760248201527f4c554e4152204942434f3a2073656e64657220686173206e6f7468696e6720746044820152666f20636c61696d60c81b6064820152608401610163565b33600090815260026020526040812080549190556001547f00000000000000000000000000000000000000000000000000000000000000001161061057600154600090610591837f0000000000000000000000000000000000000000000000000000000000000000610f99565b61059b9190610f79565b90506105d16001600160a01b037f0000000000000000000000000000000000000000000000000000000000000000163383610b95565b604080518381526020810183905233917f987d620f307ff6b94d58743cb7a7509f24071586a77759b77c2d4e29f75a2f9a910160405180910390a25050565b604051339082156108fc029083906000818181858888f1935050505015801561063d573d6000803e3d6000fd5b50604080518281526000602082015233917f987d620f307ff6b94d58743cb7a7509f24071586a77759b77c2d4e29f75a2f9a910160405180910390a25b50565b6000546001600160a01b031633146106a75760405162461bcd60e51b815260040161016390610ee6565b600080546040516001600160a01b03909116907f8be0079c531659141344cd1fd0a4f28419497f9722a3daafe3b4186f6b6457e0908390a3600080546001600160a01b0319169055565b6000546001600160a01b0316331461071b5760405162461bcd60e51b815260040161016390610ee6565b426107497f000000000000000000000000000000000000000000000000000000000000000062278d00610f61565b106107a55760405162461bcd60e51b815260206004820152602660248201527f4c554e4152204942434f3a205769746864726177616c20756e617661696c61626044820152651b19481e595d60d21b6064820152608401610163565b6108826107ba6000546001600160a01b031690565b6040516370a0823160e01b81523060048201527f00000000000000000000000000000000000000000000000000000000000000006001600160a01b0316906370a082319060240160206040518083038186803b15801561081957600080fd5b505afa15801561082d573d6000803e3d6000fd5b505050506040513d601f19601f820116820180604052508101906108519190610e7f565b6001600160a01b037f0000000000000000000000000000000000000000000000000000000000000000169190610b95565b565b6000546001600160a01b031633146108ae5760405162461bcd60e51b815260040161016390610ee6565b427f0000000000000000000000000000000000000000000000000000000000000000106108ed5760405162461bcd60e51b815260040161016390610f1b565b7f0000000000000000000000000000000000000000000000000000000000000000600154106107a55760405162461bcd60e51b815260206004820152603160248201527f4c554e4152204942434f3a2054686520726571756972656420616d6f756e74206044820152701a185cc81899595b881c1c9bdd9a591959607a1b6064820152608401610163565b6000546001600160a01b031633146109a25760405162461bcd60e51b815260040161016390610ee6565b427f0000000000000000000000000000000000000000000000000000000000000000106109e15760405162461bcd60e51b815260040161016390610f1b565b7f00000000000000000000000000000000000000000000000000000000000000006001541015610a715760405162461bcd60e51b815260206004820152603560248201527f4c554e4152204942434f3a2074686520726571756972656420616d6f756e74206044820152741a185cc81b9bdd081899595b881c1c9bdd9a591959605a1b6064820152608401610163565b600080546040516001600160a01b03909116914780156108fc02929091818181858888f1935050505015801561067a573d6000803e3d6000fd5b6000546001600160a01b03163314610ad55760405162461bcd60e51b815260040161016390610ee6565b6001600160a01b038116610b3a5760405162461bcd60e51b815260206004820152602660248201527f4f776e61626c653a206e6577206f776e657220697320746865207a65726f206160448201526564647265737360d01b6064820152608401610163565b600080546040516001600160a01b03808516939216917f8be0079c531659141344cd1fd0a4f28419497f9722a3daafe3b4186f6b6457e091a3600080546001600160a01b0319166001600160a01b0392909216919091179055565b604080516001600160a01b038416602482015260448082018490528251808303909101815260649091019091526020810180516001600160e01b031663a9059cbb60e01b179052610be7908490610bec565b505050565b6000610c41826040518060400160405280602081526020017f5361666545524332303a206c6f772d6c6576656c2063616c6c206661696c6564815250856001600160a01b0316610cbe9092919063ffffffff16565b805190915015610be75780806020019051810190610c5f9190610e5f565b610be75760405162461bcd60e51b815260206004820152602a60248201527f5361666545524332303a204552433230206f7065726174696f6e20646964206e6044820152691bdd081cdd58d8d9595960b21b6064820152608401610163565b6060610ccd8484600085610cd7565b90505b9392505050565b606082471015610d385760405162461bcd60e51b815260206004820152602660248201527f416464726573733a20696e73756666696369656e742062616c616e636520666f6044820152651c8818d85b1b60d21b6064820152608401610163565b843b610d865760405162461bcd60e51b815260206004820152601d60248201527f416464726573733a2063616c6c20746f206e6f6e2d636f6e74726163740000006044820152606401610163565b600080866001600160a01b03168587604051610da29190610e97565b60006040518083038185875af1925050503d8060008114610ddf576040519150601f19603f3d011682016040523d82523d6000602084013e610de4565b606091505b5091509150610df4828286610dff565b979650505050505050565b60608315610e0e575081610cd0565b825115610e1e5782518084602001fd5b8160405162461bcd60e51b81526004016101639190610eb3565b600060208284031215610e49578081fd5b81356001600160a01b0381168114610cd0578182fd5b600060208284031215610e70578081fd5b81518015158114610cd0578182fd5b600060208284031215610e90578081fd5b5051919050565b60008251610ea9818460208701610fb8565b9190910192915050565b6020815260008251806020840152610ed2816040850160208701610fb8565b601f01601f19169190910160400192915050565b6020808252818101527f4f776e61626c653a2063616c6c6572206973206e6f7420746865206f776e6572604082015260600190565b60208082526026908201527f4c554e4152204942434f3a206f66666572696e67206d75737420626520636f6d6040820152651c1b195d195960d21b606082015260800190565b60008219821115610f7457610f74610fe8565b500190565b600082610f9457634e487b7160e01b81526012600452602481fd5b500490565b6000816000190483118215151615610fb357610fb3610fe8565b500290565b60005b83811015610fd3578181015183820152602001610fbb565b83811115610fe2576000848401525b50505050565b634e487b7160e01b600052601160045260246000fdfea2646970667358221220adca75fb2dc04ec581dc153ceac05cb4a441fa026d4cba713655a043ae169ce164736f6c63430008040033",
  "devdoc": {
    "kind": "dev",
    "methods": {
      "owner()": {
        "details": "Returns the address of the current owner."
      },
      "renounceOwnership()": {
        "details": "Leaves the contract without owner. It will not be possible to call `onlyOwner` functions anymore. Can only be called by the current owner. NOTE: Renouncing ownership will leave the contract without an owner, thereby removing any functionality that is only available to the owner."
      },
      "transferOwnership(address)": {
        "details": "Transfers ownership of the contract to a new account (`newOwner`). Can only be called by the current owner."
      }
    },
    "version": 1
  },
  "userdoc": {
    "kind": "user",
    "methods": {},
    "notice": "Initial offering cotract",
    "version": 1
  },
  "storageLayout": {
    "storage": [
      {
        "astId": 330,
        "contract": "contracts/InitialOffering.sol:InitialOffering",
        "label": "_owner",
        "offset": 0,
        "slot": "0",
        "type": "t_address"
      },
      {
        "astId": 3628,
        "contract": "contracts/InitialOffering.sol:InitialOffering",
        "label": "totalProvided",
        "offset": 0,
        "slot": "1",
        "type": "t_uint256"
      },
      {
        "astId": 3632,
        "contract": "contracts/InitialOffering.sol:InitialOffering",
        "label": "provided",
        "offset": 0,
        "slot": "2",
        "type": "t_mapping(t_address,t_uint256)"
      }
    ],
    "types": {
      "t_address": {
        "encoding": "inplace",
        "label": "address",
        "numberOfBytes": "20"
      },
      "t_mapping(t_address,t_uint256)": {
        "encoding": "mapping",
        "key": "t_address",
        "label": "mapping(address => uint256)",
        "numberOfBytes": "32",
        "value": "t_uint256"
      },
      "t_uint256": {
        "encoding": "inplace",
        "label": "uint256",
        "numberOfBytes": "32"
      }
    }
  }
}