{
  "address": "0x5Adc6eB6cf61A2BFef9AE6A64c7236F34dF3081a",
  "abi": [
    {
      "inputs": [
        {
          "internalType": "address",
          "name": "_governance",
          "type": "address"
        },
        {
          "internalType": "address",
          "name": "_minter",
          "type": "address"
        },
        {
          "internalType": "address",
          "name": "_treasury",
          "type": "address"
        },
        {
          "internalType": "address",
          "name": "_initialOffering",
          "type": "address"
        }
      ],
      "stateMutability": "nonpayable",
      "type": "constructor"
    },
    {
      "anonymous": false,
      "inputs": [
        {
          "indexed": true,
          "internalType": "address",
          "name": "owner",
          "type": "address"
        },
        {
          "indexed": true,
          "internalType": "address",
          "name": "spender",
          "type": "address"
        },
        {
          "indexed": false,
          "internalType": "uint256",
          "name": "value",
          "type": "uint256"
        }
      ],
      "name": "Approval",
      "type": "event"
    },
    {
      "anonymous": false,
      "inputs": [
        {
          "indexed": true,
          "internalType": "address",
          "name": "from",
          "type": "address"
        },
        {
          "indexed": true,
          "internalType": "address",
          "name": "to",
          "type": "address"
        },
        {
          "indexed": false,
          "internalType": "uint256",
          "name": "value",
          "type": "uint256"
        }
      ],
      "name": "Transfer",
      "type": "event"
    },
    {
      "inputs": [],
      "name": "DOMAIN_SEPARATOR",
      "outputs": [
        {
          "internalType": "bytes32",
          "name": "",
          "type": "bytes32"
        }
      ],
      "stateMutability": "view",
      "type": "function"
    },
    {
      "inputs": [
        {
          "internalType": "address",
          "name": "owner",
          "type": "address"
        },
        {
          "internalType": "address",
          "name": "spender",
          "type": "address"
        }
      ],
      "name": "allowance",
      "outputs": [
        {
          "internalType": "uint256",
          "name": "",
          "type": "uint256"
        }
      ],
      "stateMutability": "view",
      "type": "function"
    },
    {
      "inputs": [
        {
          "internalType": "address",
          "name": "spender",
          "type": "address"
        },
        {
          "internalType": "uint256",
          "name": "amount",
          "type": "uint256"
        }
      ],
      "name": "approve",
      "outputs": [
        {
          "internalType": "bool",
          "name": "",
          "type": "bool"
        }
      ],
      "stateMutability": "nonpayable",
      "type": "function"
    },
    {
      "inputs": [
        {
          "internalType": "address",
          "name": "account",
          "type": "address"
        }
      ],
      "name": "balanceOf",
      "outputs": [
        {
          "internalType": "uint256",
          "name": "",
          "type": "uint256"
        }
      ],
      "stateMutability": "view",
      "type": "function"
    },
    {
      "inputs": [
        {
          "internalType": "uint256",
          "name": "amount",
          "type": "uint256"
        }
      ],
      "name": "burn",
      "outputs": [],
      "stateMutability": "nonpayable",
      "type": "function"
    },
    {
      "inputs": [
        {
          "internalType": "address",
          "name": "account",
          "type": "address"
        },
        {
          "internalType": "uint256",
          "name": "amount",
          "type": "uint256"
        }
      ],
      "name": "burnFrom",
      "outputs": [],
      "stateMutability": "nonpayable",
      "type": "function"
    },
    {
      "inputs": [],
      "name": "cap",
      "outputs": [
        {
          "internalType": "uint256",
          "name": "",
          "type": "uint256"
        }
      ],
      "stateMutability": "pure",
      "type": "function"
    },
    {
      "inputs": [],
      "name": "decimals",
      "outputs": [
        {
          "internalType": "uint8",
          "name": "",
          "type": "uint8"
        }
      ],
      "stateMutability": "view",
      "type": "function"
    },
    {
      "inputs": [
        {
          "internalType": "address",
          "name": "spender",
          "type": "address"
        },
        {
          "internalType": "uint256",
          "name": "subtractedValue",
          "type": "uint256"
        }
      ],
      "name": "decreaseAllowance",
      "outputs": [
        {
          "internalType": "bool",
          "name": "",
          "type": "bool"
        }
      ],
      "stateMutability": "nonpayable",
      "type": "function"
    },
    {
      "inputs": [],
      "name": "governance",
      "outputs": [
        {
          "internalType": "address",
          "name": "",
          "type": "address"
        }
      ],
      "stateMutability": "view",
      "type": "function"
    },
    {
      "inputs": [
        {
          "internalType": "address",
          "name": "spender",
          "type": "address"
        },
        {
          "internalType": "uint256",
          "name": "addedValue",
          "type": "uint256"
        }
      ],
      "name": "increaseAllowance",
      "outputs": [
        {
          "internalType": "bool",
          "name": "",
          "type": "bool"
        }
      ],
      "stateMutability": "nonpayable",
      "type": "function"
    },
    {
      "inputs": [
        {
          "internalType": "address",
          "name": "to",
          "type": "address"
        },
        {
          "internalType": "uint256",
          "name": "amount",
          "type": "uint256"
        }
      ],
      "name": "mint",
      "outputs": [],
      "stateMutability": "nonpayable",
      "type": "function"
    },
    {
      "inputs": [],
      "name": "minter",
      "outputs": [
        {
          "internalType": "address",
          "name": "",
          "type": "address"
        }
      ],
      "stateMutability": "view",
      "type": "function"
    },
    {
      "inputs": [],
      "name": "name",
      "outputs": [
        {
          "internalType": "string",
          "name": "",
          "type": "string"
        }
      ],
      "stateMutability": "view",
      "type": "function"
    },
    {
      "inputs": [
        {
          "internalType": "address",
          "name": "owner",
          "type": "address"
        }
      ],
      "name": "nonces",
      "outputs": [
        {
          "internalType": "uint256",
          "name": "",
          "type": "uint256"
        }
      ],
      "stateMutability": "view",
      "type": "function"
    },
    {
      "inputs": [
        {
          "internalType": "address",
          "name": "owner",
          "type": "address"
        },
        {
          "internalType": "address",
          "name": "spender",
          "type": "address"
        },
        {
          "internalType": "uint256",
          "name": "value",
          "type": "uint256"
        },
        {
          "internalType": "uint256",
          "name": "deadline",
          "type": "uint256"
        },
        {
          "internalType": "uint8",
          "name": "v",
          "type": "uint8"
        },
        {
          "internalType": "bytes32",
          "name": "r",
          "type": "bytes32"
        },
        {
          "internalType": "bytes32",
          "name": "s",
          "type": "bytes32"
        }
      ],
      "name": "permit",
      "outputs": [],
      "stateMutability": "nonpayable",
      "type": "function"
    },
    {
      "inputs": [
        {
          "internalType": "contract IERC20",
          "name": "_token",
          "type": "address"
        },
        {
          "internalType": "address payable",
          "name": "_to",
          "type": "address"
        },
        {
          "internalType": "uint256",
          "name": "_balance",
          "type": "uint256"
        }
      ],
      "name": "rescueTokens",
      "outputs": [],
      "stateMutability": "nonpayable",
      "type": "function"
    },
    {
      "inputs": [
        {
          "internalType": "address",
          "name": "_governance",
          "type": "address"
        }
      ],
      "name": "setGovernance",
      "outputs": [],
      "stateMutability": "nonpayable",
      "type": "function"
    },
    {
      "inputs": [
        {
          "internalType": "address",
          "name": "_minter",
          "type": "address"
        }
      ],
      "name": "setMinter",
      "outputs": [],
      "stateMutability": "nonpayable",
      "type": "function"
    },
    {
      "inputs": [],
      "name": "symbol",
      "outputs": [
        {
          "internalType": "string",
          "name": "",
          "type": "string"
        }
      ],
      "stateMutability": "view",
      "type": "function"
    },
    {
      "inputs": [],
      "name": "totalSupply",
      "outputs": [
        {
          "internalType": "uint256",
          "name": "",
          "type": "uint256"
        }
      ],
      "stateMutability": "view",
      "type": "function"
    },
    {
      "inputs": [
        {
          "internalType": "address",
          "name": "recipient",
          "type": "address"
        },
        {
          "internalType": "uint256",
          "name": "amount",
          "type": "uint256"
        }
      ],
      "name": "transfer",
      "outputs": [
        {
          "internalType": "bool",
          "name": "",
          "type": "bool"
        }
      ],
      "stateMutability": "nonpayable",
      "type": "function"
    },
    {
      "inputs": [
        {
          "internalType": "address",
          "name": "sender",
          "type": "address"
        },
        {
          "internalType": "address",
          "name": "recipient",
          "type": "address"
        },
        {
          "internalType": "uint256",
          "name": "amount",
          "type": "uint256"
        }
      ],
      "name": "transferFrom",
      "outputs": [
        {
          "internalType": "bool",
          "name": "",
          "type": "bool"
        }
      ],
      "stateMutability": "nonpayable",
      "type": "function"
    }
  ],
  "transactionHash": "0xa95b29500b552cf2efb950337823687a0f9acf9c3fb68130d6c911b86269656f",
  "args": [
    "0xf370671dD4cC2F2a0b6442Ddf010C6bd176dAA16",
    "0xf370671dD4cC2F2a0b6442Ddf010C6bd176dAA16",
    "0x2080EA03Eb19A1EC5826da4BFCb8Fe14A8CfA4c7",
    "0xa1D3Dcacc671262132c54A9071B9f677423c86f1"
  ],
  "solcInputHash": "27ec36c3d07e205983bb1c25c155e7c5",
  "bytecode": "0x6101406040527f6e71edae12b1b97f4d1f60370fef10105fa2faae0126114a169c64845d6126c9610120523480156200003757600080fd5b5060405162001f4a38038062001f4a8339810160408190526200005a9162000436565b6040518060400160405280600b81526020016a262aa720a9102a37b5b2b760a91b81525080604051806040016040528060018152602001603160f81b8152506040518060400160405280600b81526020016a263ab730b9102a37b5b2b760a91b81525060405180604001604052806005815260200164262aa720a960d91b8152508160039080519060200190620000f392919062000373565b5080516200010990600490602084019062000373565b5050825160209384012082519284019290922060c083815260e08290524660a0818152604080517f8b73c3c69bb8fe3d512ecc4cf759cc79239f7b179b0ffacaa9a75d522b39400f818a01819052818301989098526060810195909552608080860193909352308583015280518086039092018252939092019092528051940193909320909252610100525050600680546001600160a01b038681166001600160a01b0319928316179092556007805492861692909116919091179055620001dc8169a968163f0a57b4000000620001fc565b620001f2826954b40b1f852bda000000620001fc565b50505050620004f4565b6a108b2a2c28029094000000816200021360025490565b6200021f919062000492565b1115620002735760405162461bcd60e51b815260206004820152601960248201527f45524332304361707065643a206361702065786365656465640000000000000060448201526064015b60405180910390fd5b6200028a82826200028e60201b62000b921760201c565b5050565b6001600160a01b038216620002e65760405162461bcd60e51b815260206004820152601f60248201527f45524332303a206d696e7420746f20746865207a65726f20616464726573730060448201526064016200026a565b8060026000828254620002fa919062000492565b90915550506001600160a01b038216600090815260208190526040812080548392906200032990849062000492565b90915550506040518181526001600160a01b038316906000907fddf252ad1be2c89b69c2b068fc378daa952ba7f163c4a11628f55a4df523b3ef9060200160405180910390a35050565b8280546200038190620004b7565b90600052602060002090601f016020900481019282620003a55760008555620003f0565b82601f10620003c057805160ff1916838001178555620003f0565b82800160010185558215620003f0579182015b82811115620003f0578251825591602001919060010190620003d3565b50620003fe92915062000402565b5090565b5b80821115620003fe576000815560010162000403565b80516001600160a01b03811681146200043157600080fd5b919050565b600080600080608085870312156200044c578384fd5b620004578562000419565b9350620004676020860162000419565b9250620004776040860162000419565b9150620004876060860162000419565b905092959194509250565b60008219821115620004b257634e487b7160e01b81526011600452602481fd5b500190565b600181811c90821680620004cc57607f821691505b60208210811415620004ee57634e487b7160e01b600052602260045260246000fd5b50919050565b60805160a05160c05160e0516101005161012051611a06620005446000396000610a2801526000610fc40152600061101301526000610fee01526000610f7201526000610f9b0152611a066000f3fe608060405234801561001057600080fd5b506004361061014d5760003560e01c80635aa6e675116100c3578063a9059cbb1161007c578063a9059cbb146102c3578063ab033ea9146102d6578063cea9d26f146102e9578063d505accf146102fc578063dd62ed3e1461030f578063fca3b5aa1461034857600080fd5b80635aa6e6751461024657806370a082311461025957806379cc6790146102825780637ecebe001461029557806395d89b41146102a8578063a457c2d7146102b057600080fd5b8063313ce56711610115578063313ce567146101e3578063355274ea146101f25780633644e51514610203578063395093511461020b57806340c10f191461021e57806342966c681461023357600080fd5b806306fdde03146101525780630754617214610170578063095ea7b31461019b57806318160ddd146101be57806323b872dd146101d0575b600080fd5b61015a61035b565b6040516101679190611885565b60405180910390f35b600754610183906001600160a01b031681565b6040516001600160a01b039091168152602001610167565b6101ae6101a93660046117da565b6103ed565b6040519015158152602001610167565b6002545b604051908152602001610167565b6101ae6101de366004611725565b610403565b60405160128152602001610167565b6a108b2a2c280290940000006101c2565b6101c26104bb565b6101ae6102193660046117da565b6104ca565b61023161022c3660046117da565b610501565b005b610231610241366004611839565b61058a565b600654610183906001600160a01b031681565b6101c26102673660046116d1565b6001600160a01b031660009081526020819052604090205490565b6102316102903660046117da565b610597565b6101c26102a33660046116d1565b61061f565b61015a61063f565b6101ae6102be3660046117da565b61064e565b6101ae6102d13660046117da565b6106e9565b6102316102e43660046116d1565b6106f6565b6102316102f7366004611825565b61074b565b61023161030a366004611765565b6109b7565b6101c261031d3660046116ed565b6001600160a01b03918216600090815260016020908152604080832093909416825291909152205490565b6102316103563660046116d1565b610b3d565b60606003805461036a9061196a565b80601f01602080910402602001604051908101604052809291908181526020018280546103969061196a565b80156103e35780601f106103b8576101008083540402835291602001916103e3565b820191906000526020600020905b8154815290600101906020018083116103c657829003601f168201915b5050505050905090565b60006103fa338484610c71565b50600192915050565b6000610410848484610d96565b6001600160a01b03841660009081526001602090815260408083203384529091529020548281101561049a5760405162461bcd60e51b815260206004820152602860248201527f45524332303a207472616e7366657220616d6f756e74206578636565647320616044820152676c6c6f77616e636560c01b60648201526084015b60405180910390fd5b6104ae85336104a98685611923565b610c71565b60019150505b9392505050565b60006104c5610f6e565b905090565b3360008181526001602090815260408083206001600160a01b038716845290915281205490916103fa9185906104a990869061190b565b6007546001600160a01b0316336001600160a01b03161461057c5760405162461bcd60e51b815260206004820152602f60248201527f4c756e6172546f6b656e3a206f6e6c79206d696e7465722063616e207065726660448201526e37b936903a3434b99030b1ba34b7b760891b6064820152608401610491565b6105868282611061565b5050565b61059433826110d9565b50565b60006105a3833361031d565b9050818110156106015760405162461bcd60e51b8152602060048201526024808201527f45524332303a206275726e20616d6f756e74206578636565647320616c6c6f77604482015263616e636560e01b6064820152608401610491565b61061083336104a98585611923565b61061a83836110d9565b505050565b6001600160a01b0381166000908152600560205260408120545b92915050565b60606004805461036a9061196a565b3360009081526001602090815260408083206001600160a01b0386168452909152812054828110156106d05760405162461bcd60e51b815260206004820152602560248201527f45524332303a2064656372656173656420616c6c6f77616e63652062656c6f77604482015264207a65726f60d81b6064820152608401610491565b6106df33856104a98685611923565b5060019392505050565b60006103fa338484610d96565b6006546001600160a01b0316336001600160a01b0316146107295760405162461bcd60e51b8152600401610491906118b8565b600680546001600160a01b0319166001600160a01b0392909216919091179055565b6006546001600160a01b0316336001600160a01b03161461077e5760405162461bcd60e51b8152600401610491906118b8565b6001600160a01b0382166107e55760405162461bcd60e51b815260206004820152602860248201527f4c756e6172546f6b656e3a2063616e206e6f742073656e6420746f207a65726f604482015267206164647265737360c01b6064820152608401610491565b6001600160a01b0383166108a957476000821561080b576108068284611228565b61080d565b815b90506000811161086b5760405162461bcd60e51b815260206004820152602360248201527f4c756e6172546f6b656e3a20747279696e6720746f2073656e6420302065746860448201526265727360e81b6064820152608401610491565b6040516001600160a01b0385169082156108fc029083906000818181858888f193505050501580156108a1573d6000803e3d6000fd5b505050505050565b6040516370a0823160e01b81523060048201526000906001600160a01b038516906370a082319060240160206040518083038186803b1580156108eb57600080fd5b505afa1580156108ff573d6000803e3d6000fd5b505050506040513d601f19601f820116820180604052508101906109239190611851565b90506000821561093c576109378284611228565b61093e565b815b90506000811161099c5760405162461bcd60e51b815260206004820152602360248201527f4c756e6172546f6b656e3a20747279696e6720746f2073656e64203020746f6b604482015262656e7360e81b6064820152608401610491565b6109b06001600160a01b038616858361123e565b5050505050565b83421115610a075760405162461bcd60e51b815260206004820152601d60248201527f45524332305065726d69743a206578706972656420646561646c696e650000006044820152606401610491565b6001600160a01b0387811660008181526005602090815260408083205481517f00000000000000000000000000000000000000000000000000000000000000008185015280830195909552948b166060850152608084018a905260a084019490945260c08084018990528451808503909101815260e09093019093528151919092012090610a9482611290565b90506000610aa4828787876112de565b9050896001600160a01b0316816001600160a01b031614610b075760405162461bcd60e51b815260206004820152601e60248201527f45524332305065726d69743a20696e76616c6964207369676e617475726500006044820152606401610491565b6001600160a01b038a16600090815260056020526040902080546001019055610b318a8a8a610c71565b50505050505050505050565b6006546001600160a01b0316336001600160a01b031614610b705760405162461bcd60e51b8152600401610491906118b8565b600780546001600160a01b0319166001600160a01b0392909216919091179055565b6001600160a01b038216610be85760405162461bcd60e51b815260206004820152601f60248201527f45524332303a206d696e7420746f20746865207a65726f2061646472657373006044820152606401610491565b8060026000828254610bfa919061190b565b90915550506001600160a01b03821660009081526020819052604081208054839290610c2790849061190b565b90915550506040518181526001600160a01b038316906000907fddf252ad1be2c89b69c2b068fc378daa952ba7f163c4a11628f55a4df523b3ef9060200160405180910390a35050565b6001600160a01b038316610cd35760405162461bcd60e51b8152602060048201526024808201527f45524332303a20617070726f76652066726f6d20746865207a65726f206164646044820152637265737360e01b6064820152608401610491565b6001600160a01b038216610d345760405162461bcd60e51b815260206004820152602260248201527f45524332303a20617070726f766520746f20746865207a65726f206164647265604482015261737360f01b6064820152608401610491565b6001600160a01b0383811660008181526001602090815260408083209487168084529482529182902085905590518481527f8c5be1e5ebec7d5bd14f71427d1e84f3dd0314c0f7b2291e5b200ac8c7c3b92591015b60405180910390a3505050565b6001600160a01b038316610dfa5760405162461bcd60e51b815260206004820152602560248201527f45524332303a207472616e736665722066726f6d20746865207a65726f206164604482015264647265737360d81b6064820152608401610491565b6001600160a01b038216610e5c5760405162461bcd60e51b815260206004820152602360248201527f45524332303a207472616e7366657220746f20746865207a65726f206164647260448201526265737360e81b6064820152608401610491565b6001600160a01b03831660009081526020819052604090205481811015610ed45760405162461bcd60e51b815260206004820152602660248201527f45524332303a207472616e7366657220616d6f756e7420657863656564732062604482015265616c616e636560d01b6064820152608401610491565b610ede8282611923565b6001600160a01b038086166000908152602081905260408082209390935590851681529081208054849290610f1490849061190b565b92505081905550826001600160a01b0316846001600160a01b03167fddf252ad1be2c89b69c2b068fc378daa952ba7f163c4a11628f55a4df523b3ef84604051610f6091815260200190565b60405180910390a350505050565b60007f0000000000000000000000000000000000000000000000000000000000000000461415610fbd57507f000000000000000000000000000000000000000000000000000000000000000090565b50604080517f00000000000000000000000000000000000000000000000000000000000000006020808301919091527f0000000000000000000000000000000000000000000000000000000000000000828401527f000000000000000000000000000000000000000000000000000000000000000060608301524660808301523060a0808401919091528351808403909101815260c0909201909252805191012090565b6a108b2a2c280290940000008161107760025490565b611081919061190b565b11156110cf5760405162461bcd60e51b815260206004820152601960248201527f45524332304361707065643a20636170206578636565646564000000000000006044820152606401610491565b6105868282610b92565b6001600160a01b0382166111395760405162461bcd60e51b815260206004820152602160248201527f45524332303a206275726e2066726f6d20746865207a65726f206164647265736044820152607360f81b6064820152608401610491565b6001600160a01b038216600090815260208190526040902054818110156111ad5760405162461bcd60e51b815260206004820152602260248201527f45524332303a206275726e20616d6f756e7420657863656564732062616c616e604482015261636560f01b6064820152608401610491565b6111b78282611923565b6001600160a01b038416600090815260208190526040812091909155600280548492906111e5908490611923565b90915550506040518281526000906001600160a01b038516907fddf252ad1be2c89b69c2b068fc378daa952ba7f163c4a11628f55a4df523b3ef90602001610d89565b600081831061123757816104b4565b5090919050565b604080516001600160a01b038416602482015260448082018490528251808303909101815260649091019091526020810180516001600160e01b031663a9059cbb60e01b17905261061a908490611487565b600061063961129d610f6e565b8360405161190160f01b6020820152602281018390526042810182905260009060620160405160208183030381529060405280519060200120905092915050565b60007f7fffffffffffffffffffffffffffffff5d576e7357a4501ddfe92f46681b20a082111561135b5760405162461bcd60e51b815260206004820152602260248201527f45434453413a20696e76616c6964207369676e6174757265202773272076616c604482015261756560f01b6064820152608401610491565b8360ff16601b148061137057508360ff16601c145b6113c75760405162461bcd60e51b815260206004820152602260248201527f45434453413a20696e76616c6964207369676e6174757265202776272076616c604482015261756560f01b6064820152608401610491565b6040805160008082526020820180845288905260ff871692820192909252606081018590526080810184905260019060a0016020604051602081039080840390855afa15801561141b573d6000803e3d6000fd5b5050604051601f1901519150506001600160a01b03811661147e5760405162461bcd60e51b815260206004820152601860248201527f45434453413a20696e76616c6964207369676e617475726500000000000000006044820152606401610491565b95945050505050565b60006114dc826040518060400160405280602081526020017f5361666545524332303a206c6f772d6c6576656c2063616c6c206661696c6564815250856001600160a01b03166115599092919063ffffffff16565b80519091501561061a57808060200190518101906114fa9190611805565b61061a5760405162461bcd60e51b815260206004820152602a60248201527f5361666545524332303a204552433230206f7065726174696f6e20646964206e6044820152691bdd081cdd58d8d9595960b21b6064820152608401610491565b60606115688484600085611570565b949350505050565b6060824710156115d15760405162461bcd60e51b815260206004820152602660248201527f416464726573733a20696e73756666696369656e742062616c616e636520666f6044820152651c8818d85b1b60d21b6064820152608401610491565b843b61161f5760405162461bcd60e51b815260206004820152601d60248201527f416464726573733a2063616c6c20746f206e6f6e2d636f6e74726163740000006044820152606401610491565b600080866001600160a01b0316858760405161163b9190611869565b60006040518083038185875af1925050503d8060008114611678576040519150601f19603f3d011682016040523d82523d6000602084013e61167d565b606091505b509150915061168d828286611698565b979650505050505050565b606083156116a75750816104b4565b8251156116b75782518084602001fd5b8160405162461bcd60e51b81526004016104919190611885565b6000602082840312156116e2578081fd5b81356104b4816119bb565b600080604083850312156116ff578081fd5b823561170a816119bb565b9150602083013561171a816119bb565b809150509250929050565b600080600060608486031215611739578081fd5b8335611744816119bb565b92506020840135611754816119bb565b929592945050506040919091013590565b600080600080600080600060e0888a03121561177f578283fd5b873561178a816119bb565b9650602088013561179a816119bb565b95506040880135945060608801359350608088013560ff811681146117bd578384fd5b9699959850939692959460a0840135945060c09093013592915050565b600080604083850312156117ec578182fd5b82356117f7816119bb565b946020939093013593505050565b600060208284031215611816578081fd5b815180151581146104b4578182fd5b600080600060608486031215611739578283fd5b60006020828403121561184a578081fd5b5035919050565b600060208284031215611862578081fd5b5051919050565b6000825161187b81846020870161193a565b9190910192915050565b60208152600082518060208401526118a481604085016020870161193a565b601f01601f19169190910160400192915050565b60208082526033908201527f4c756e6172546f6b656e3a206f6e6c7920676f7665726e616e63652063616e206040820152723832b93337b936903a3434b99030b1ba34b7b760691b606082015260800190565b6000821982111561191e5761191e6119a5565b500190565b600082821015611935576119356119a5565b500390565b60005b8381101561195557818101518382015260200161193d565b83811115611964576000848401525b50505050565b600181811c9082168061197e57607f821691505b6020821081141561199f57634e487b7160e01b600052602260045260246000fd5b50919050565b634e487b7160e01b600052601160045260246000fd5b6001600160a01b038116811461059457600080fdfea2646970667358221220844f707f4c969ba13664a21ddbe7bdbff2a0064073bed75cd2e869e648641c7564736f6c63430008040033",
  "devdoc": {
    "kind": "dev",
    "methods": {
      "DOMAIN_SEPARATOR()": {
        "details": "See {IERC20Permit-DOMAIN_SEPARATOR}."
      },
      "allowance(address,address)": {
        "details": "See {IERC20-allowance}."
      },
      "approve(address,uint256)": {
        "details": "See {IERC20-approve}. Requirements: - `spender` cannot be the zero address."
      },
      "balanceOf(address)": {
        "details": "See {IERC20-balanceOf}."
      },
      "burn(uint256)": {
        "details": "Destroys `amount` tokens from the caller. See {ERC20-_burn}."
      },
      "burnFrom(address,uint256)": {
        "details": "Destroys `amount` tokens from `account`, deducting from the caller's allowance. See {ERC20-_burn} and {ERC20-allowance}. Requirements: - the caller must have allowance for ``accounts``'s tokens of at least `amount`."
      },
      "decimals()": {
        "details": "Returns the number of decimals used to get its user representation. For example, if `decimals` equals `2`, a balance of `505` tokens should be displayed to a user as `5,05` (`505 / 10 ** 2`). Tokens usually opt for a value of 18, imitating the relationship between Ether and Wei. This is the value {ERC20} uses, unless this function is overloaded; NOTE: This information is only used for _display_ purposes: it in no way affects any of the arithmetic of the contract, including {IERC20-balanceOf} and {IERC20-transfer}."
      },
      "decreaseAllowance(address,uint256)": {
        "details": "Atomically decreases the allowance granted to `spender` by the caller. This is an alternative to {approve} that can be used as a mitigation for problems described in {IERC20-approve}. Emits an {Approval} event indicating the updated allowance. Requirements: - `spender` cannot be the zero address. - `spender` must have allowance for the caller of at least `subtractedValue`."
      },
      "increaseAllowance(address,uint256)": {
        "details": "Atomically increases the allowance granted to `spender` by the caller. This is an alternative to {approve} that can be used as a mitigation for problems described in {IERC20-approve}. Emits an {Approval} event indicating the updated allowance. Requirements: - `spender` cannot be the zero address."
      },
      "name()": {
        "details": "Returns the name of the token."
      },
      "nonces(address)": {
        "details": "See {IERC20Permit-nonces}."
      },
      "permit(address,address,uint256,uint256,uint8,bytes32,bytes32)": {
        "details": "See {IERC20Permit-permit}."
      },
      "symbol()": {
        "details": "Returns the symbol of the token, usually a shorter version of the name."
      },
      "totalSupply()": {
        "details": "See {IERC20-totalSupply}."
      },
      "transfer(address,uint256)": {
        "details": "See {IERC20-transfer}. Requirements: - `recipient` cannot be the zero address. - the caller must have a balance of at least `amount`."
      },
      "transferFrom(address,address,uint256)": {
        "details": "See {IERC20-transferFrom}. Emits an {Approval} event indicating the updated allowance. This is not required by the EIP. See the note at the beginning of {ERC20}. Requirements: - `sender` and `recipient` cannot be the zero address. - `sender` must have a balance of at least `amount`. - the caller must have allowance for ``sender``'s tokens of at least `amount`."
      }
    },
    "version": 1
  },
  "userdoc": {
    "kind": "user",
    "methods": {
      "rescueTokens(address,address,uint256)": {
        "notice": "Method to claim junk and accidentally sent tokens"
      }
    },
    "notice": "name = LUNAR Tokensymbol = LUNARtotal supply = 20 mil",
    "version": 1
  },
  "storageLayout": {
    "storage": [
      {
        "astId": 1214,
        "contract": "contracts/LunarToken.sol:LunarToken",
        "label": "_balances",
        "offset": 0,
        "slot": "0",
        "type": "t_mapping(t_address,t_uint256)"
      },
      {
        "astId": 1220,
        "contract": "contracts/LunarToken.sol:LunarToken",
        "label": "_allowances",
        "offset": 0,
        "slot": "1",
        "type": "t_mapping(t_address,t_mapping(t_address,t_uint256))"
      },
      {
        "astId": 1222,
        "contract": "contracts/LunarToken.sol:LunarToken",
        "label": "_totalSupply",
        "offset": 0,
        "slot": "2",
        "type": "t_uint256"
      },
      {
        "astId": 1224,
        "contract": "contracts/LunarToken.sol:LunarToken",
        "label": "_name",
        "offset": 0,
        "slot": "3",
        "type": "t_string_storage"
      },
      {
        "astId": 1226,
        "contract": "contracts/LunarToken.sol:LunarToken",
        "label": "_symbol",
        "offset": 0,
        "slot": "4",
        "type": "t_string_storage"
      },
      {
        "astId": 1929,
        "contract": "contracts/LunarToken.sol:LunarToken",
        "label": "_nonces",
        "offset": 0,
        "slot": "5",
        "type": "t_mapping(t_address,t_struct(Counter)2639_storage)"
      },
      {
        "astId": 4903,
        "contract": "contracts/LunarToken.sol:LunarToken",
        "label": "governance",
        "offset": 0,
        "slot": "6",
        "type": "t_address"
      },
      {
        "astId": 4905,
        "contract": "contracts/LunarToken.sol:LunarToken",
        "label": "minter",
        "offset": 0,
        "slot": "7",
        "type": "t_address"
      }
    ],
    "types": {
      "t_address": {
        "encoding": "inplace",
        "label": "address",
        "numberOfBytes": "20"
      },
      "t_mapping(t_address,t_mapping(t_address,t_uint256))": {
        "encoding": "mapping",
        "key": "t_address",
        "label": "mapping(address => mapping(address => uint256))",
        "numberOfBytes": "32",
        "value": "t_mapping(t_address,t_uint256)"
      },
      "t_mapping(t_address,t_struct(Counter)2639_storage)": {
        "encoding": "mapping",
        "key": "t_address",
        "label": "mapping(address => struct Counters.Counter)",
        "numberOfBytes": "32",
        "value": "t_struct(Counter)2639_storage"
      },
      "t_mapping(t_address,t_uint256)": {
        "encoding": "mapping",
        "key": "t_address",
        "label": "mapping(address => uint256)",
        "numberOfBytes": "32",
        "value": "t_uint256"
      },
      "t_string_storage": {
        "encoding": "bytes",
        "label": "string",
        "numberOfBytes": "32"
      },
      "t_struct(Counter)2639_storage": {
        "encoding": "inplace",
        "label": "struct Counters.Counter",
        "members": [
          {
            "astId": 2638,
            "contract": "contracts/LunarToken.sol:LunarToken",
            "label": "_value",
            "offset": 0,
            "slot": "0",
            "type": "t_uint256"
          }
        ],
        "numberOfBytes": "32"
      },
      "t_uint256": {
        "encoding": "inplace",
        "label": "uint256",
        "numberOfBytes": "32"
      }
    }
  }
}