{
  "address": "0xFA29DE7110a1f7200761e879dc21Fd9cd756F753",
  "abi": [
    {
      "inputs": [
        {
          "internalType": "contract LunarToken",
          "name": "_lunar",
          "type": "address"
        },
        {
          "internalType": "address",
          "name": "_team",
          "type": "address"
        }
      ],
      "stateMutability": "nonpayable",
      "type": "constructor"
    },
    {
      "anonymous": false,
      "inputs": [
        {
          "indexed": true,
          "internalType": "address",
          "name": "user",
          "type": "address"
        },
        {
          "indexed": true,
          "internalType": "uint256",
          "name": "pid",
          "type": "uint256"
        },
        {
          "indexed": false,
          "internalType": "uint256",
          "name": "amount",
          "type": "uint256"
        },
        {
          "indexed": true,
          "internalType": "address",
          "name": "to",
          "type": "address"
        }
      ],
      "name": "Deposit",
      "type": "event"
    },
    {
      "anonymous": false,
      "inputs": [
        {
          "indexed": true,
          "internalType": "address",
          "name": "user",
          "type": "address"
        },
        {
          "indexed": true,
          "internalType": "uint256",
          "name": "pid",
          "type": "uint256"
        },
        {
          "indexed": false,
          "internalType": "uint256",
          "name": "amount",
          "type": "uint256"
        },
        {
          "indexed": true,
          "internalType": "address",
          "name": "to",
          "type": "address"
        }
      ],
      "name": "EmergencyWithdraw",
      "type": "event"
    },
    {
      "anonymous": false,
      "inputs": [
        {
          "indexed": true,
          "internalType": "address",
          "name": "user",
          "type": "address"
        },
        {
          "indexed": true,
          "internalType": "uint256",
          "name": "pid",
          "type": "uint256"
        },
        {
          "indexed": false,
          "internalType": "uint256",
          "name": "amount",
          "type": "uint256"
        }
      ],
      "name": "Harvest",
      "type": "event"
    },
    {
      "anonymous": false,
      "inputs": [
        {
          "indexed": true,
          "internalType": "address",
          "name": "previousOwner",
          "type": "address"
        },
        {
          "indexed": true,
          "internalType": "address",
          "name": "newOwner",
          "type": "address"
        }
      ],
      "name": "OwnershipTransferred",
      "type": "event"
    },
    {
      "anonymous": false,
      "inputs": [
        {
          "indexed": true,
          "internalType": "address",
          "name": "user",
          "type": "address"
        },
        {
          "indexed": true,
          "internalType": "uint256",
          "name": "pid",
          "type": "uint256"
        },
        {
          "indexed": false,
          "internalType": "uint256",
          "name": "amount",
          "type": "uint256"
        },
        {
          "indexed": true,
          "internalType": "address",
          "name": "to",
          "type": "address"
        }
      ],
      "name": "Withdraw",
      "type": "event"
    },
    {
      "inputs": [],
      "name": "TEAM_REWARD",
      "outputs": [
        {
          "internalType": "uint256",
          "name": "",
          "type": "uint256"
        }
      ],
      "stateMutability": "view",
      "type": "function"
    },
    {
      "inputs": [
        {
          "internalType": "contract IERC20",
          "name": "_dToken",
          "type": "address"
        },
        {
          "internalType": "uint256",
          "name": "_lunarPerSecond",
          "type": "uint256"
        },
        {
          "internalType": "uint256",
          "name": "_startTime",
          "type": "uint256"
        },
        {
          "internalType": "uint256",
          "name": "_endTime",
          "type": "uint256"
        },
        {
          "internalType": "address",
          "name": "_from",
          "type": "address"
        }
      ],
      "name": "add",
      "outputs": [],
      "stateMutability": "nonpayable",
      "type": "function"
    },
    {
      "inputs": [
        {
          "internalType": "uint256",
          "name": "_pid",
          "type": "uint256"
        },
        {
          "internalType": "uint256",
          "name": "_amount",
          "type": "uint256"
        },
        {
          "internalType": "address",
          "name": "_to",
          "type": "address"
        }
      ],
      "name": "deposit",
      "outputs": [],
      "stateMutability": "nonpayable",
      "type": "function"
    },
    {
      "inputs": [
        {
          "internalType": "uint256",
          "name": "_pid",
          "type": "uint256"
        },
        {
          "internalType": "address",
          "name": "_to",
          "type": "address"
        }
      ],
      "name": "emergencyWithdraw",
      "outputs": [],
      "stateMutability": "nonpayable",
      "type": "function"
    },
    {
      "inputs": [
        {
          "internalType": "uint256",
          "name": "_pid",
          "type": "uint256"
        },
        {
          "internalType": "uint256",
          "name": "_from",
          "type": "uint256"
        },
        {
          "internalType": "uint256",
          "name": "_to",
          "type": "uint256"
        }
      ],
      "name": "getMultiplier",
      "outputs": [
        {
          "internalType": "uint256",
          "name": "",
          "type": "uint256"
        }
      ],
      "stateMutability": "view",
      "type": "function"
    },
    {
      "inputs": [
        {
          "internalType": "uint256",
          "name": "_pid",
          "type": "uint256"
        },
        {
          "internalType": "address",
          "name": "_to",
          "type": "address"
        }
      ],
      "name": "harvest",
      "outputs": [],
      "stateMutability": "nonpayable",
      "type": "function"
    },
    {
      "inputs": [
        {
          "internalType": "uint256",
          "name": "_pid",
          "type": "uint256"
        },
        {
          "internalType": "uint256",
          "name": "_seconds",
          "type": "uint256"
        },
        {
          "internalType": "address",
          "name": "_from",
          "type": "address"
        }
      ],
      "name": "increaseEndTime",
      "outputs": [],
      "stateMutability": "nonpayable",
      "type": "function"
    },
    {
      "inputs": [],
      "name": "lunar",
      "outputs": [
        {
          "internalType": "contract IERC20",
          "name": "",
          "type": "address"
        }
      ],
      "stateMutability": "view",
      "type": "function"
    },
    {
      "inputs": [
        {
          "internalType": "uint256[]",
          "name": "pids",
          "type": "uint256[]"
        }
      ],
      "name": "massUpdatePools",
      "outputs": [],
      "stateMutability": "nonpayable",
      "type": "function"
    },
    {
      "inputs": [],
      "name": "massUpdatePools",
      "outputs": [],
      "stateMutability": "nonpayable",
      "type": "function"
    },
    {
      "inputs": [],
      "name": "owner",
      "outputs": [
        {
          "internalType": "address",
          "name": "",
          "type": "address"
        }
      ],
      "stateMutability": "view",
      "type": "function"
    },
    {
      "inputs": [
        {
          "internalType": "uint256",
          "name": "_pid",
          "type": "uint256"
        },
        {
          "internalType": "address",
          "name": "_user",
          "type": "address"
        }
      ],
      "name": "pendingLunar",
      "outputs": [
        {
          "internalType": "uint256",
          "name": "",
          "type": "uint256"
        }
      ],
      "stateMutability": "view",
      "type": "function"
    },
    {
      "inputs": [
        {
          "internalType": "uint256",
          "name": "",
          "type": "uint256"
        }
      ],
      "name": "poolInfo",
      "outputs": [
        {
          "internalType": "contract IERC20",
          "name": "dToken",
          "type": "address"
        },
        {
          "internalType": "uint256",
          "name": "lunarPerSecond",
          "type": "uint256"
        },
        {
          "internalType": "uint256",
          "name": "startTime",
          "type": "uint256"
        },
        {
          "internalType": "uint256",
          "name": "endTime",
          "type": "uint256"
        },
        {
          "internalType": "uint256",
          "name": "lastRewardTime",
          "type": "uint256"
        },
        {
          "internalType": "uint256",
          "name": "accLunarPerShare",
          "type": "uint256"
        },
        {
          "internalType": "uint256",
          "name": "depositAmount",
          "type": "uint256"
        },
        {
          "internalType": "uint256",
          "name": "lunarAmount",
          "type": "uint256"
        }
      ],
      "stateMutability": "view",
      "type": "function"
    },
    {
      "inputs": [],
      "name": "poolLength",
      "outputs": [
        {
          "internalType": "uint256",
          "name": "",
          "type": "uint256"
        }
      ],
      "stateMutability": "view",
      "type": "function"
    },
    {
      "inputs": [],
      "name": "renounceOwnership",
      "outputs": [],
      "stateMutability": "nonpayable",
      "type": "function"
    },
    {
      "inputs": [
        {
          "internalType": "address",
          "name": "_team",
          "type": "address"
        }
      ],
      "name": "setTeam",
      "outputs": [],
      "stateMutability": "nonpayable",
      "type": "function"
    },
    {
      "inputs": [],
      "name": "team",
      "outputs": [
        {
          "internalType": "address",
          "name": "",
          "type": "address"
        }
      ],
      "stateMutability": "view",
      "type": "function"
    },
    {
      "inputs": [],
      "name": "teamRewardAmount",
      "outputs": [
        {
          "internalType": "uint256",
          "name": "",
          "type": "uint256"
        }
      ],
      "stateMutability": "view",
      "type": "function"
    },
    {
      "inputs": [
        {
          "internalType": "address",
          "name": "newOwner",
          "type": "address"
        }
      ],
      "name": "transferOwnership",
      "outputs": [],
      "stateMutability": "nonpayable",
      "type": "function"
    },
    {
      "inputs": [
        {
          "internalType": "uint256",
          "name": "_pid",
          "type": "uint256"
        }
      ],
      "name": "updatePool",
      "outputs": [],
      "stateMutability": "nonpayable",
      "type": "function"
    },
    {
      "inputs": [
        {
          "internalType": "uint256",
          "name": "",
          "type": "uint256"
        },
        {
          "internalType": "address",
          "name": "",
          "type": "address"
        }
      ],
      "name": "userInfo",
      "outputs": [
        {
          "internalType": "uint256",
          "name": "amount",
          "type": "uint256"
        },
        {
          "internalType": "uint256",
          "name": "rewardDebt",
          "type": "uint256"
        }
      ],
      "stateMutability": "view",
      "type": "function"
    },
    {
      "inputs": [
        {
          "internalType": "uint256",
          "name": "_pid",
          "type": "uint256"
        },
        {
          "internalType": "uint256",
          "name": "_amount",
          "type": "uint256"
        },
        {
          "internalType": "address",
          "name": "_to",
          "type": "address"
        }
      ],
      "name": "withdraw",
      "outputs": [],
      "stateMutability": "nonpayable",
      "type": "function"
    },
    {
      "inputs": [
        {
          "internalType": "uint256",
          "name": "_pid",
          "type": "uint256"
        },
        {
          "internalType": "address",
          "name": "_to",
          "type": "address"
        }
      ],
      "name": "withdrawRemainingReward",
      "outputs": [],
      "stateMutability": "nonpayable",
      "type": "function"
    },
    {
      "inputs": [],
      "name": "withdrawTeamReward",
      "outputs": [],
      "stateMutability": "nonpayable",
      "type": "function"
    }
  ],
  "transactionHash": "0xf702a5c2f7366e20affb0f8cedb83b9023a0f201417826a200ad383ef24aca55",
  "args": [
    "0x5Adc6eB6cf61A2BFef9AE6A64c7236F34dF3081a",
    "0x10291a8Ee83413a17c4b3396B32da8a6246823dF"
  ],
  "solcInputHash": "27ec36c3d07e205983bb1c25c155e7c5",
  "bytecode": "0x60806040523480156200001157600080fd5b506040516200192e3803806200192e8339810160408190526200003491620000a7565b600080546001600160a01b031916339081178255604051909182917f8be0079c531659141344cd1fd0a4f28419497f9722a3daafe3b4186f6b6457e0908290a350600180546001600160a01b039384166001600160a01b03199182161790915560028054929093169116179055620000fe565b60008060408385031215620000ba578182fd5b8251620000c781620000e5565b6020840151909250620000da81620000e5565b809150509250929050565b6001600160a01b0381168114620000fb57600080fd5b50565b611820806200010e6000396000f3fe608060405234801561001057600080fd5b50600436106101585760003560e01c8063715018a6116100c35780639c489cbe1161007c5780639c489cbe1461031c578063ba14b3641461032f578063c21fcabb14610338578063d7e981c71461034b578063e059d4161461035e578063f2fde38b1461037157600080fd5b8063715018a61461026b5780637bafb0291461027357806385f2aef2146102865780638da5cb5b146102b15780638dbdbe6d146102c257806393f1a40b146102d557600080fd5b80632f940c70116101155780632f940c701461021a57806351eb05a61461022d57806357a5b58c146102405780635844412914610253578063630b5ba11461025b5780636f5768d51461026357600080fd5b8063081e3eda1461015d578063095cf5c6146101745780630ad58d2f146101895780631526fe271461019c57806318fccc76146101f45780632567862c14610207575b600080fd5b6004545b6040519081526020015b60405180910390f35b61018761018236600461148c565b610384565b005b6101876101973660046115d4565b6103d9565b6101af6101aa36600461158d565b610533565b604080516001600160a01b0390991689526020890197909752958701949094526060860192909252608085015260a084015260c083015260e08201526101000161016b565b6101876102023660046115a5565b610593565b6101616102153660046115a5565b610635565b6101876102283660046115a5565b61073b565b61018761023b36600461158d565b610803565b61018761024e3660046114a8565b610903565b610161600a81565b610187610954565b61018761097f565b6101876109cc565b61016161028136600461160c565b610a40565b600254610299906001600160a01b031681565b6040516001600160a01b03909116815260200161016b565b6000546001600160a01b0316610299565b6101876102d03660046115d4565b610adf565b6103076102e33660046115a5565b60056020908152600092835260408084209091529082529020805460019091015482565b6040805192835260208301919091520161016b565b61018761032a366004611538565b610c2b565b61016160035481565b6101876103463660046115a5565b610e57565b600154610299906001600160a01b031681565b61018761036c3660046115d4565b610f7b565b61018761037f36600461148c565b61105f565b6002546001600160a01b031633146103b75760405162461bcd60e51b81526004016103ae90611686565b60405180910390fd5b600280546001600160a01b0319166001600160a01b0392909216919091179055565b6000600484815481106103fc57634e487b7160e01b600052603260045260246000fd5b6000918252602080832087845260058252604080852033865290925292206008909102909101915061042d85610803565b83826006016000828254610441919061175e565b90915550506001810154600583015482546000929164e8d4a5100091610467919061173f565b610471919061171f565b61047b919061175e565b905084826000016000828254610491919061175e565b90915550506005830154825464e8d4a51000916104ad9161173f565b6104b7919061171f565b600183015582546104d2906001600160a01b03168587611149565b836001600160a01b031686336001600160a01b03167f8166bf25f8a2b7ed3c85049207da4358d16edbed977d23fa2ee6f0dde3ec21328860405161051891815260200190565b60405180910390a461052b8682866111b1565b505050505050565b6004818154811061054357600080fd5b6000918252602090912060089091020180546001820154600283015460038401546004850154600586015460068701546007909701546001600160a01b0390961697509395929491939092909188565b6000600483815481106105b657634e487b7160e01b600052603260045260246000fd5b600091825260208083208684526005825260408085203386529092529220600890910290910191506105e784610803565b600064e8d4a5100083600501548360000154610603919061173f565b61060d919061171f565b90506000826001015482610621919061175e565b60018401839055905061052b8682876111b1565b6000806004848154811061065957634e487b7160e01b600052603260045260246000fd5b60009182526020808320878452600580835260408086206001600160a01b038a1687529093529190932060089092029092019182015460048301549293509091421180156106aa5750600683015415155b156107045760006106c087856004015442610a40565b905060008460010154826106d4919061173f565b60068601549091506106eb64e8d4a510008361173f565b6106f5919061171f565b6106ff9084611707565b925050505b6001820154825464e8d4a510009061071d90849061173f565b610727919061171f565b610731919061175e565b9695505050505050565b60006004838154811061075e57634e487b7160e01b600052603260045260246000fd5b6000918252602080832086845260058252604080852033808752935284208054858255600182019590955560089093020180549094509192916107ae916001600160a01b03919091169083611149565b836001600160a01b031685336001600160a01b03167f2cac5e20e1541d836381527a43f651851e302817b71dc8e810284e69210c1c6b846040516107f491815260200190565b60405180910390a45050505050565b60006004828154811061082657634e487b7160e01b600052603260045260246000fd5b9060005260206000209060080201905080600401544211610845575050565b6006810154156108f957600061086083836004015442610a40565b90506000826001015482610874919061173f565b90506000610883600a8361171f565b905080600360008282546108979190611707565b909155505060068401546108b064e8d4a510008461173f565b6108ba919061171f565b8460050160008282546108cd9190611707565b909155506108dd90508183611707565b8460070160008282546108f0919061175e565b90915550505050505b4260049091015550565b8060005b8181101561094e5761093e84848381811061093257634e487b7160e01b600052603260045260246000fd5b90506020020135610803565b610947816117a1565b9050610907565b50505050565b60045460005b8181101561097b5761096b81610803565b610974816117a1565b905061095a565b5050565b6002546001600160a01b031633146109a95760405162461bcd60e51b81526004016103ae90611686565b6002546003546001546109ca926001600160a01b0391821692911690611149565b565b6000546001600160a01b031633146109f65760405162461bcd60e51b81526004016103ae906116d2565b600080546040516001600160a01b03909116907f8be0079c531659141344cd1fd0a4f28419497f9722a3daafe3b4186f6b6457e0908390a3600080546001600160a01b0319169055565b60008060048581548110610a6457634e487b7160e01b600052603260045260246000fd5b906000526020600020906008020190508060030154841180610a895750806002015483105b15610a98576000915050610ad8565b80600201548411610aad578060020154610aaf565b835b935080600301548311610ac25782610ac8565b80600301545b9250610ad4848461175e565b9150505b9392505050565b600060048481548110610b0257634e487b7160e01b600052603260045260246000fd5b600091825260208083208784526005825260408085206001600160a01b0388168652909252922060089091029091019150610b3c85610803565b6000816001015464e8d4a5100084600501548460000154610b5d919061173f565b610b67919061171f565b610b71919061175e565b905084826000016000828254610b879190611707565b90915550506005830154825464e8d4a5100091610ba39161173f565b610bad919061171f565b826001018190555084836006016000828254610bc99190611707565b90915550508254610be5906001600160a01b031633308861120a565b836001600160a01b031686336001600160a01b03167f02d7e648dd130fc184d383e55bb126ac4c9c60e8f94bf05acdf557ba2d540b478860405161051891815260200190565b6000546001600160a01b03163314610c555760405162461bcd60e51b81526004016103ae906116d2565b6000834211610c645783610c66565b425b9050600085610c75868661175e565b610c7f919061173f565b9050610c8c600a8261171f565b610c969082611707565b60408051610100810182526001600160a01b038a81168252602082018a81529282018981526060830189815260808401888152600060a0860181815260c0870182815260e088018a815260048054600180820183559190955298517f8a35acfbc15ff81a39ae7d344fd709f28e8600b4aa8c65c6b64bfe7fe36bd19b600890950294850180546001600160a01b031916918a1691909117905598517f8a35acfbc15ff81a39ae7d344fd709f28e8600b4aa8c65c6b64bfe7fe36bd19c84015594517f8a35acfbc15ff81a39ae7d344fd709f28e8600b4aa8c65c6b64bfe7fe36bd19d83015592517f8a35acfbc15ff81a39ae7d344fd709f28e8600b4aa8c65c6b64bfe7fe36bd19e82015590517f8a35acfbc15ff81a39ae7d344fd709f28e8600b4aa8c65c6b64bfe7fe36bd19f82015590517f8a35acfbc15ff81a39ae7d344fd709f28e8600b4aa8c65c6b64bfe7fe36bd1a082015590517f8a35acfbc15ff81a39ae7d344fd709f28e8600b4aa8c65c6b64bfe7fe36bd1a182015592517f8a35acfbc15ff81a39ae7d344fd709f28e8600b4aa8c65c6b64bfe7fe36bd1a29093019290925554919250610e4e911684308461120a565b50505050505050565b6000546001600160a01b03163314610e815760405162461bcd60e51b81526004016103ae906116d2565b600060048381548110610ea457634e487b7160e01b600052603260045260246000fd5b9060005260206000209060080201905080600301544211610f075760405162461bcd60e51b815260206004820152601960248201527f4c756e61724661726d3a20706f6f6c206973206163746976650000000000000060448201526064016103ae565b600681015415610f595760405162461bcd60e51b815260206004820152601c60248201527f4c756e61724661726d3a20706f6f6c206973206e6f7420656d7074790000000060448201526064016103ae565b600781018054600090915560015461094e906001600160a01b03168483611149565b6000546001600160a01b03163314610fa55760405162461bcd60e51b81526004016103ae906116d2565b600060048481548110610fc857634e487b7160e01b600052603260045260246000fd5b90600052602060002090600802019050610fe184610803565b6000816001015484610ff3919061173f565b9050611000600a8261171f565b61100a9082611707565b9050838260030160008282546110209190611707565b925050819055508082600701600082825461103b9190611707565b9091555050600154611058906001600160a01b031684308461120a565b5050505050565b6000546001600160a01b031633146110895760405162461bcd60e51b81526004016103ae906116d2565b6001600160a01b0381166110ee5760405162461bcd60e51b815260206004820152602660248201527f4f776e61626c653a206e6577206f776e657220697320746865207a65726f206160448201526564647265737360d01b60648201526084016103ae565b600080546040516001600160a01b03808516939216917f8be0079c531659141344cd1fd0a4f28419497f9722a3daafe3b4186f6b6457e091a3600080546001600160a01b0319166001600160a01b0392909216919091179055565b6040516001600160a01b0383166024820152604481018290526111ac90849063a9059cbb60e01b906064015b60408051601f198184030181529190526020810180516001600160e01b03166001600160e01b031990931692909217909152611242565b505050565b81156111ce576001546111ce906001600160a01b03168284611149565b604051828152839033907f71bab65ced2e5750775a0613be067df48ef06cf92a496ebf7663ae06609249549060200160405180910390a3505050565b6040516001600160a01b038085166024830152831660448201526064810182905261094e9085906323b872dd60e01b90608401611175565b6000611297826040518060400160405280602081526020017f5361666545524332303a206c6f772d6c6576656c2063616c6c206661696c6564815250856001600160a01b03166113149092919063ffffffff16565b8051909150156111ac57808060200190518101906112b59190611518565b6111ac5760405162461bcd60e51b815260206004820152602a60248201527f5361666545524332303a204552433230206f7065726174696f6e20646964206e6044820152691bdd081cdd58d8d9595960b21b60648201526084016103ae565b6060611323848460008561132b565b949350505050565b60608247101561138c5760405162461bcd60e51b815260206004820152602660248201527f416464726573733a20696e73756666696369656e742062616c616e636520666f6044820152651c8818d85b1b60d21b60648201526084016103ae565b843b6113da5760405162461bcd60e51b815260206004820152601d60248201527f416464726573733a2063616c6c20746f206e6f6e2d636f6e747261637400000060448201526064016103ae565b600080866001600160a01b031685876040516113f69190611637565b60006040518083038185875af1925050503d8060008114611433576040519150601f19603f3d011682016040523d82523d6000602084013e611438565b606091505b5091509150611448828286611453565b979650505050505050565b60608315611462575081610ad8565b8251156114725782518084602001fd5b8160405162461bcd60e51b81526004016103ae9190611653565b60006020828403121561149d578081fd5b8135610ad8816117d2565b600080602083850312156114ba578081fd5b823567ffffffffffffffff808211156114d1578283fd5b818501915085601f8301126114e4578283fd5b8135818111156114f2578384fd5b8660208260051b8501011115611506578384fd5b60209290920196919550909350505050565b600060208284031215611529578081fd5b81518015158114610ad8578182fd5b600080600080600060a0868803121561154f578081fd5b853561155a816117d2565b9450602086013593506040860135925060608601359150608086013561157f816117d2565b809150509295509295909350565b60006020828403121561159e578081fd5b5035919050565b600080604083850312156115b7578182fd5b8235915060208301356115c9816117d2565b809150509250929050565b6000806000606084860312156115e8578283fd5b83359250602084013591506040840135611601816117d2565b809150509250925092565b600080600060608486031215611620578283fd5b505081359360208301359350604090920135919050565b60008251611649818460208701611775565b9190910192915050565b6020815260008251806020840152611672816040850160208701611775565b601f01601f19169190910160400192915050565b6020808252602c908201527f4c756e61724661726d3a204f6e6c79207465616d2063616e20706572666f726d60408201526b103a3434b99030b1ba34b7b760a11b606082015260800190565b6020808252818101527f4f776e61626c653a2063616c6c6572206973206e6f7420746865206f776e6572604082015260600190565b6000821982111561171a5761171a6117bc565b500190565b60008261173a57634e487b7160e01b81526012600452602481fd5b500490565b6000816000190483118215151615611759576117596117bc565b500290565b600082821015611770576117706117bc565b500390565b60005b83811015611790578181015183820152602001611778565b8381111561094e5750506000910152565b60006000198214156117b5576117b56117bc565b5060010190565b634e487b7160e01b600052601160045260246000fd5b6001600160a01b03811681146117e757600080fd5b5056fea264697066735822122078068d6207ed16b86827591fa522e18cd4e07b8f84c4ce4885d83382ef1267b464736f6c63430008040033",
  "devdoc": {
    "kind": "dev",
    "methods": {
      "add(address,uint256,uint256,uint256,address)": {
        "details": "DO NOT add the same Deposit token more than once. Rewards will be messed up if you do.",
        "params": {
          "_dToken": "Address of deposit token contract.",
          "_endTime": "End of rewards time.",
          "_from": "The address from which to take the LUNARs for the pool rewards.",
          "_lunarPerSecond": "Lunar rewards per second.",
          "_startTime": "Start of rewards time."
        }
      },
      "deposit(uint256,uint256,address)": {
        "params": {
          "_amount": "dToken amount to deposit.",
          "_pid": "The index of the pool. See `poolInfo`.",
          "_to": "The receiver of `amount` deposit benefit."
        }
      },
      "emergencyWithdraw(uint256,address)": {
        "params": {
          "_pid": "The index of the pool. See `poolInfo`.",
          "_to": "Receiver of the dTokens."
        }
      },
      "getMultiplier(uint256,uint256,uint256)": {
        "params": {
          "_from": "From timestamp.",
          "_pid": "The index of the pool. See `poolInfo`.",
          "_to": "To timestamp."
        }
      },
      "harvest(uint256,address)": {
        "params": {
          "_pid": "The index of the pool. See `poolInfo`.",
          "_to": "Receiver of LUNAR rewards."
        }
      },
      "increaseEndTime(uint256,uint256,address)": {
        "params": {
          "_pid": "The index of the pool. See `poolInfo`.",
          "_seconds": "Numer of seconds to be added."
        }
      },
      "massUpdatePools()": {
        "details": "Be careful of gas spending!"
      },
      "massUpdatePools(uint256[])": {
        "params": {
          "pids": "Pool IDs of all to be updated. Make sure to update all active pools."
        }
      },
      "owner()": {
        "details": "Returns the address of the current owner."
      },
      "pendingLunar(uint256,address)": {
        "params": {
          "_pid": "The index of the pool. See `poolInfo`.",
          "_user": "Address of user."
        },
        "returns": {
          "_0": "pending LUNAR reward for a given user."
        }
      },
      "renounceOwnership()": {
        "details": "Leaves the contract without owner. It will not be possible to call `onlyOwner` functions anymore. Can only be called by the current owner. NOTE: Renouncing ownership will leave the contract without an owner, thereby removing any functionality that is only available to the owner."
      },
      "setTeam(address)": {
        "params": {
          "_team": "New team address."
        }
      },
      "transferOwnership(address)": {
        "details": "Transfers ownership of the contract to a new account (`newOwner`). Can only be called by the current owner."
      },
      "updatePool(uint256)": {
        "params": {
          "_pid": "The index of the pool. See `poolInfo`."
        }
      },
      "withdraw(uint256,uint256,address)": {
        "params": {
          "_amount": "Deposit tokens amount to withdraw.",
          "_pid": "The index of the pool. See `poolInfo`.",
          "_to": "Receiver of the deposit tokens and LUNAR rewards."
        }
      },
      "withdrawRemainingReward(uint256,address)": {
        "details": "If deposit was empty at some point in time when the pool was active, it may happen to have LUNARs left that where not distributed.Better ensure that the pool is never empty between startTime and endTime and don't use this function."
      }
    },
    "version": 1
  },
  "userdoc": {
    "kind": "user",
    "methods": {
      "TEAM_REWARD()": {
        "notice": "Team reward delimiter."
      },
      "add(address,uint256,uint256,uint256,address)": {
        "notice": "Add a new deposit token to the pool. Can only be called by the owner."
      },
      "deposit(uint256,uint256,address)": {
        "notice": "Deposit dTokens for LUNAR allocation."
      },
      "emergencyWithdraw(uint256,address)": {
        "notice": "Withdraw without caring about rewards. EMERGENCY ONLY."
      },
      "getMultiplier(uint256,uint256,uint256)": {
        "notice": "Return reward multiplier over the given _from to _to timestamp."
      },
      "harvest(uint256,address)": {
        "notice": "Harvest proceeds for transaction sender to `_to`."
      },
      "increaseEndTime(uint256,uint256,address)": {
        "notice": "Increase pool endTime."
      },
      "massUpdatePools()": {
        "notice": "Update reward variables for all pools."
      },
      "massUpdatePools(uint256[])": {
        "notice": "Update reward variables for all pools. Be careful of gas spending!"
      },
      "pendingLunar(uint256,address)": {
        "notice": "View function to see pending LUNAR on frontend."
      },
      "poolInfo(uint256)": {
        "notice": "Info of each pool."
      },
      "setTeam(address)": {
        "notice": "Update team address."
      },
      "updatePool(uint256)": {
        "notice": "Update reward variables of the given pool."
      },
      "userInfo(uint256,address)": {
        "notice": "Info of each user that stakes Deposit tokens."
      },
      "withdraw(uint256,uint256,address)": {
        "notice": "Withdraw deposit tokens from LunarFarm and harvest proceeds for transaction sender to `to`."
      },
      "withdrawRemainingReward(uint256,address)": {
        "notice": "Withdraw remaining lunar pool reward."
      },
      "withdrawTeamReward()": {
        "notice": "Withdraw team reward."
      }
    },
    "notice": "LunarFarm is a building constructed by the early lunar settlers for the purpouse of producing resources needed to survive on the moon. We do some fancy math here. Basically, any point in time, the amount of LUNARs entitled to a user but is pending to be distributed is: pending reward = (user.amount * pool.accLunarPerShare) - user.rewardDebt Whenever a user deposits or withdraws deposit tokens to a pool. Here's what happens: 1. The pool's `accLunarPerShare` (and `lastRewardTime`) gets updated. 2. User receives the pending reward sent to his/her address. 3. User's `amount` gets updated. 4. User's `rewardDebt` gets updated. Have fun reading it. Hopefully it's bug-free. God bless.",
    "version": 1
  },
  "storageLayout": {
    "storage": [
      {
        "astId": 330,
        "contract": "contracts/LunarFarm.sol:LunarFarm",
        "label": "_owner",
        "offset": 0,
        "slot": "0",
        "type": "t_address"
      },
      {
        "astId": 3932,
        "contract": "contracts/LunarFarm.sol:LunarFarm",
        "label": "lunar",
        "offset": 0,
        "slot": "1",
        "type": "t_contract(IERC20)1780"
      },
      {
        "astId": 3934,
        "contract": "contracts/LunarFarm.sol:LunarFarm",
        "label": "team",
        "offset": 0,
        "slot": "2",
        "type": "t_address"
      },
      {
        "astId": 3940,
        "contract": "contracts/LunarFarm.sol:LunarFarm",
        "label": "teamRewardAmount",
        "offset": 0,
        "slot": "3",
        "type": "t_uint256"
      },
      {
        "astId": 3945,
        "contract": "contracts/LunarFarm.sol:LunarFarm",
        "label": "poolInfo",
        "offset": 0,
        "slot": "4",
        "type": "t_array(t_struct(PoolInfo)3929_storage)dyn_storage"
      },
      {
        "astId": 3953,
        "contract": "contracts/LunarFarm.sol:LunarFarm",
        "label": "userInfo",
        "offset": 0,
        "slot": "5",
        "type": "t_mapping(t_uint256,t_mapping(t_address,t_struct(UserInfo)3911_storage))"
      }
    ],
    "types": {
      "t_address": {
        "encoding": "inplace",
        "label": "address",
        "numberOfBytes": "20"
      },
      "t_array(t_struct(PoolInfo)3929_storage)dyn_storage": {
        "base": "t_struct(PoolInfo)3929_storage",
        "encoding": "dynamic_array",
        "label": "struct LunarFarm.PoolInfo[]",
        "numberOfBytes": "32"
      },
      "t_contract(IERC20)1780": {
        "encoding": "inplace",
        "label": "contract IERC20",
        "numberOfBytes": "20"
      },
      "t_mapping(t_address,t_struct(UserInfo)3911_storage)": {
        "encoding": "mapping",
        "key": "t_address",
        "label": "mapping(address => struct LunarFarm.UserInfo)",
        "numberOfBytes": "32",
        "value": "t_struct(UserInfo)3911_storage"
      },
      "t_mapping(t_uint256,t_mapping(t_address,t_struct(UserInfo)3911_storage))": {
        "encoding": "mapping",
        "key": "t_uint256",
        "label": "mapping(uint256 => mapping(address => struct LunarFarm.UserInfo))",
        "numberOfBytes": "32",
        "value": "t_mapping(t_address,t_struct(UserInfo)3911_storage)"
      },
      "t_struct(PoolInfo)3929_storage": {
        "encoding": "inplace",
        "label": "struct LunarFarm.PoolInfo",
        "members": [
          {
            "astId": 3914,
            "contract": "contracts/LunarFarm.sol:LunarFarm",
            "label": "dToken",
            "offset": 0,
            "slot": "0",
            "type": "t_contract(IERC20)1780"
          },
          {
            "astId": 3916,
            "contract": "contracts/LunarFarm.sol:LunarFarm",
            "label": "lunarPerSecond",
            "offset": 0,
            "slot": "1",
            "type": "t_uint256"
          },
          {
            "astId": 3918,
            "contract": "contracts/LunarFarm.sol:LunarFarm",
            "label": "startTime",
            "offset": 0,
            "slot": "2",
            "type": "t_uint256"
          },
          {
            "astId": 3920,
            "contract": "contracts/LunarFarm.sol:LunarFarm",
            "label": "endTime",
            "offset": 0,
            "slot": "3",
            "type": "t_uint256"
          },
          {
            "astId": 3922,
            "contract": "contracts/LunarFarm.sol:LunarFarm",
            "label": "lastRewardTime",
            "offset": 0,
            "slot": "4",
            "type": "t_uint256"
          },
          {
            "astId": 3924,
            "contract": "contracts/LunarFarm.sol:LunarFarm",
            "label": "accLunarPerShare",
            "offset": 0,
            "slot": "5",
            "type": "t_uint256"
          },
          {
            "astId": 3926,
            "contract": "contracts/LunarFarm.sol:LunarFarm",
            "label": "depositAmount",
            "offset": 0,
            "slot": "6",
            "type": "t_uint256"
          },
          {
            "astId": 3928,
            "contract": "contracts/LunarFarm.sol:LunarFarm",
            "label": "lunarAmount",
            "offset": 0,
            "slot": "7",
            "type": "t_uint256"
          }
        ],
        "numberOfBytes": "256"
      },
      "t_struct(UserInfo)3911_storage": {
        "encoding": "inplace",
        "label": "struct LunarFarm.UserInfo",
        "members": [
          {
            "astId": 3908,
            "contract": "contracts/LunarFarm.sol:LunarFarm",
            "label": "amount",
            "offset": 0,
            "slot": "0",
            "type": "t_uint256"
          },
          {
            "astId": 3910,
            "contract": "contracts/LunarFarm.sol:LunarFarm",
            "label": "rewardDebt",
            "offset": 0,
            "slot": "1",
            "type": "t_uint256"
          }
        ],
        "numberOfBytes": "64"
      },
      "t_uint256": {
        "encoding": "inplace",
        "label": "uint256",
        "numberOfBytes": "32"
      }
    }
  }
}