{
  "address": "0x54E8E8338C475086912Bb1F112D8Ba72bB018D50",
  "abi": [
    {
      "inputs": [
        {
          "internalType": "contract IERC20",
          "name": "_lunar",
          "type": "address"
        },
        {
          "internalType": "contract IERC20",
          "name": "_eth",
          "type": "address"
        },
        {
          "internalType": "uint256",
          "name": "_start",
          "type": "uint256"
        },
        {
          "internalType": "uint256",
          "name": "_end",
          "type": "uint256"
        },
        {
          "internalType": "uint256",
          "name": "_totalDistributeAmount",
          "type": "uint256"
        },
        {
          "internalType": "uint256",
          "name": "_minimalProvideAmount",
          "type": "uint256"
        }
      ],
      "stateMutability": "nonpayable",
      "type": "constructor"
    },
    {
      "anonymous": false,
      "inputs": [
        {
          "indexed": true,
          "internalType": "address",
          "name": "account",
          "type": "address"
        },
        {
          "indexed": false,
          "internalType": "uint256",
          "name": "userShare",
          "type": "uint256"
        },
        {
          "indexed": false,
          "internalType": "uint256",
          "name": "lunarAmount",
          "type": "uint256"
        }
      ],
      "name": "Claimed",
      "type": "event"
    },
    {
      "anonymous": false,
      "inputs": [
        {
          "indexed": true,
          "internalType": "address",
          "name": "previousOwner",
          "type": "address"
        },
        {
          "indexed": true,
          "internalType": "address",
          "name": "newOwner",
          "type": "address"
        }
      ],
      "name": "OwnershipTransferred",
      "type": "event"
    },
    {
      "anonymous": false,
      "inputs": [
        {
          "indexed": true,
          "internalType": "address",
          "name": "account",
          "type": "address"
        },
        {
          "indexed": false,
          "internalType": "uint256",
          "name": "ethAmount",
          "type": "uint256"
        }
      ],
      "name": "Received",
      "type": "event"
    },
    {
      "inputs": [],
      "name": "claim",
      "outputs": [],
      "stateMutability": "nonpayable",
      "type": "function"
    },
    {
      "inputs": [
        {
          "internalType": "uint256",
          "name": "_amount",
          "type": "uint256"
        }
      ],
      "name": "deposit",
      "outputs": [],
      "stateMutability": "nonpayable",
      "type": "function"
    },
    {
      "inputs": [],
      "name": "end",
      "outputs": [
        {
          "internalType": "uint256",
          "name": "",
          "type": "uint256"
        }
      ],
      "stateMutability": "view",
      "type": "function"
    },
    {
      "inputs": [],
      "name": "eth",
      "outputs": [
        {
          "internalType": "contract IERC20",
          "name": "",
          "type": "address"
        }
      ],
      "stateMutability": "view",
      "type": "function"
    },
    {
      "inputs": [],
      "name": "lunar",
      "outputs": [
        {
          "internalType": "contract IERC20",
          "name": "",
          "type": "address"
        }
      ],
      "stateMutability": "view",
      "type": "function"
    },
    {
      "inputs": [],
      "name": "minimalProvideAmount",
      "outputs": [
        {
          "internalType": "uint256",
          "name": "",
          "type": "uint256"
        }
      ],
      "stateMutability": "view",
      "type": "function"
    },
    {
      "inputs": [],
      "name": "owner",
      "outputs": [
        {
          "internalType": "address",
          "name": "",
          "type": "address"
        }
      ],
      "stateMutability": "view",
      "type": "function"
    },
    {
      "inputs": [
        {
          "internalType": "address",
          "name": "",
          "type": "address"
        }
      ],
      "name": "provided",
      "outputs": [
        {
          "internalType": "uint256",
          "name": "",
          "type": "uint256"
        }
      ],
      "stateMutability": "view",
      "type": "function"
    },
    {
      "inputs": [],
      "name": "renounceOwnership",
      "outputs": [],
      "stateMutability": "nonpayable",
      "type": "function"
    },
    {
      "inputs": [],
      "name": "start",
      "outputs": [
        {
          "internalType": "uint256",
          "name": "",
          "type": "uint256"
        }
      ],
      "stateMutability": "view",
      "type": "function"
    },
    {
      "inputs": [],
      "name": "totalDistributeAmount",
      "outputs": [
        {
          "internalType": "uint256",
          "name": "",
          "type": "uint256"
        }
      ],
      "stateMutability": "view",
      "type": "function"
    },
    {
      "inputs": [],
      "name": "totalProvided",
      "outputs": [
        {
          "internalType": "uint256",
          "name": "",
          "type": "uint256"
        }
      ],
      "stateMutability": "view",
      "type": "function"
    },
    {
      "inputs": [
        {
          "internalType": "address",
          "name": "newOwner",
          "type": "address"
        }
      ],
      "name": "transferOwnership",
      "outputs": [],
      "stateMutability": "nonpayable",
      "type": "function"
    },
    {
      "inputs": [],
      "name": "withdrawLUNAR",
      "outputs": [],
      "stateMutability": "nonpayable",
      "type": "function"
    },
    {
      "inputs": [],
      "name": "withdrawProvidedETH",
      "outputs": [],
      "stateMutability": "nonpayable",
      "type": "function"
    },
    {
      "inputs": [],
      "name": "withdrawUnclaimedLUNAR",
      "outputs": [],
      "stateMutability": "nonpayable",
      "type": "function"
    }
  ],
  "transactionHash": "0x37b4598472d09f3b85e483ab0e491f2247656c6d01faa1ba8ce2dd153451cef8",
  "args": [
    "0xfc6d7fed375e836168599e7316399c592232E40f",
    "0xA6FA4fB5f76172d178d61B04b0ecd319C5d1C0aa",
    1625097600,
    1625529600,
    "800000000000000000000000",
    "75000000000000000000"
  ],
  "solcInputHash": "f4546f4332cbf0602a14ac2625d6e5be",
  "bytecode": "0x610140604052600060015534801561001657600080fd5b506040516112ff3803806112ff833981016040819052610035916100c5565b600080546001600160a01b031916339081178255604051909182917f8be0079c531659141344cd1fd0a4f28419497f9722a3daafe3b4186f6b6457e0908290a3506001600160601b0319606096871b8116610100529490951b9093166101205260809190915260a05260c05260e05261011c565b80516001600160a01b03811681146100c057600080fd5b919050565b60008060008060008060c087890312156100dd578182fd5b6100e6876100a9565b95506100f4602088016100a9565b945060408701519350606087015192506080870151915060a087015190509295509295509295565b60805160a05160c05160e0516101005160601c6101205160601c6111176101e86000396000818161016701528181610451015281816108fb01528181610a780152610b04015260008181610240015281816103de0152818161060901526106950152600081816101a6015281816103710152818161072901526109c001526000818161013801526103a101526000818161026f015281816102a60152818161055b015281816106eb01528181610835015261098201526000818161021901526107b501526111176000f3fe608060405234801561001057600080fd5b50600436106101005760003560e01c80639ddb9ee111610097578063d7e981c711610066578063d7e981c71461023b578063e43608d814610262578063efbe1c1c1461026a578063f2fde38b1461029157600080fd5b80639ddb9ee1146101d9578063a9a4a934146101f9578063b6b55f2514610201578063be9a65551461021457600080fd5b80637fc4a199116100d35780637fc4a1991461015a5780638c7c9e0c146101625780638d975992146101a15780638da5cb5b146101c857600080fd5b806302e3cb0b146101055780634e71d92d14610121578063715018a61461012b5780637ee05a3e14610133575b600080fd5b61010e60015481565b6040519081526020015b60405180910390f35b6101296102a4565b005b6101296104b7565b61010e7f000000000000000000000000000000000000000000000000000000000000000081565b61012961052b565b6101897f000000000000000000000000000000000000000000000000000000000000000081565b6040516001600160a01b039091168152602001610118565b61010e7f000000000000000000000000000000000000000000000000000000000000000081565b6000546001600160a01b0316610189565b61010e6101e7366004610f07565b60026020526000908152604090205481565b6101296106be565b61012961020f366004610f4e565b6107b2565b61010e7f000000000000000000000000000000000000000000000000000000000000000081565b6101897f000000000000000000000000000000000000000000000000000000000000000081565b610129610955565b61010e7f000000000000000000000000000000000000000000000000000000000000000081565b61012961029f366004610f07565b610b2b565b7f000000000000000000000000000000000000000000000000000000000000000042116102ec5760405162461bcd60e51b81526004016102e390611002565b60405180910390fd5b336000908152600260205260409020546103585760405162461bcd60e51b815260206004820152602760248201527f4c554e4152204942434f3a2073656e64657220686173206e6f7468696e6720746044820152666f20636c61696d60c81b60648201526084016102e3565b33600090815260026020526040812080549190556001547f000000000000000000000000000000000000000000000000000000000000000011610444576001546000906103c5837f0000000000000000000000000000000000000000000000000000000000000000611080565b6103cf9190611060565b90506104056001600160a01b037f0000000000000000000000000000000000000000000000000000000000000000163383610c15565b604080518381526020810183905233917f987d620f307ff6b94d58743cb7a7509f24071586a77759b77c2d4e29f75a2f9a910160405180910390a25050565b6104786001600160a01b037f0000000000000000000000000000000000000000000000000000000000000000163383610c15565b604080518281526000602082015233917f987d620f307ff6b94d58743cb7a7509f24071586a77759b77c2d4e29f75a2f9a91015b60405180910390a250565b6000546001600160a01b031633146104e15760405162461bcd60e51b81526004016102e390610fcd565b600080546040516001600160a01b03909116907f8be0079c531659141344cd1fd0a4f28419497f9722a3daafe3b4186f6b6457e0908390a3600080546001600160a01b0319169055565b6000546001600160a01b031633146105555760405162461bcd60e51b81526004016102e390610fcd565b426105837f000000000000000000000000000000000000000000000000000000000000000062278d00611048565b106105df5760405162461bcd60e51b815260206004820152602660248201527f4c554e4152204942434f3a205769746864726177616c20756e617661696c61626044820152651b19481e595d60d21b60648201526084016102e3565b6106bc6105f46000546001600160a01b031690565b6040516370a0823160e01b81523060048201527f00000000000000000000000000000000000000000000000000000000000000006001600160a01b0316906370a082319060240160206040518083038186803b15801561065357600080fd5b505afa158015610667573d6000803e3d6000fd5b505050506040513d601f19601f8201168201806040525081019061068b9190610f66565b6001600160a01b037f0000000000000000000000000000000000000000000000000000000000000000169190610c15565b565b6000546001600160a01b031633146106e85760405162461bcd60e51b81526004016102e390610fcd565b427f0000000000000000000000000000000000000000000000000000000000000000106107275760405162461bcd60e51b81526004016102e390611002565b7f0000000000000000000000000000000000000000000000000000000000000000600154106105df5760405162461bcd60e51b815260206004820152603160248201527f4c554e4152204942434f3a2054686520726571756972656420616d6f756e74206044820152701a185cc81899595b881c1c9bdd9a591959607a1b60648201526084016102e3565b427f000000000000000000000000000000000000000000000000000000000000000011156108335760405162461bcd60e51b815260206004820152602860248201527f4c554e4152204942434f3a206f66666572696e6720686173206e6f74207374616044820152671c9d1959081e595d60c21b60648201526084016102e3565b7f00000000000000000000000000000000000000000000000000000000000000004211156108b25760405162461bcd60e51b815260206004820152602660248201527f4c554e4152204942434f3a206f66666572696e672068617320616c726561647960448201526508195b99195960d21b60648201526084016102e3565b80600160008282546108c49190611048565b909155505033600090815260026020526040812080548392906108e8908490611048565b9091555061092390506001600160a01b037f000000000000000000000000000000000000000000000000000000000000000016333084610c7d565b60405181815233907f88a5966d370b9919b20f3e2c13ff65706f196a4e32cc2c12bf57088f88525874906020016104ac565b6000546001600160a01b0316331461097f5760405162461bcd60e51b81526004016102e390610fcd565b427f0000000000000000000000000000000000000000000000000000000000000000106109be5760405162461bcd60e51b81526004016102e390611002565b7f00000000000000000000000000000000000000000000000000000000000000006001541015610a4e5760405162461bcd60e51b815260206004820152603560248201527f4c554e4152204942434f3a2074686520726571756972656420616d6f756e74206044820152741a185cc81b9bdd081899595b881c1c9bdd9a591959605a1b60648201526084016102e3565b6106bc610a636000546001600160a01b031690565b6040516370a0823160e01b81523060048201527f00000000000000000000000000000000000000000000000000000000000000006001600160a01b0316906370a082319060240160206040518083038186803b158015610ac257600080fd5b505afa158015610ad6573d6000803e3d6000fd5b505050506040513d601f19601f82011682018060405250810190610afa9190610f66565b6001600160a01b037f0000000000000000000000000000000000000000000000000000000000000000169190610c15565b6000546001600160a01b03163314610b555760405162461bcd60e51b81526004016102e390610fcd565b6001600160a01b038116610bba5760405162461bcd60e51b815260206004820152602660248201527f4f776e61626c653a206e6577206f776e657220697320746865207a65726f206160448201526564647265737360d01b60648201526084016102e3565b600080546040516001600160a01b03808516939216917f8be0079c531659141344cd1fd0a4f28419497f9722a3daafe3b4186f6b6457e091a3600080546001600160a01b0319166001600160a01b0392909216919091179055565b6040516001600160a01b038316602482015260448101829052610c7890849063a9059cbb60e01b906064015b60408051601f198184030181529190526020810180516001600160e01b03166001600160e01b031990931692909217909152610cbb565b505050565b6040516001600160a01b0380851660248301528316604482015260648101829052610cb59085906323b872dd60e01b90608401610c41565b50505050565b6000610d10826040518060400160405280602081526020017f5361666545524332303a206c6f772d6c6576656c2063616c6c206661696c6564815250856001600160a01b0316610d8d9092919063ffffffff16565b805190915015610c785780806020019051810190610d2e9190610f2e565b610c785760405162461bcd60e51b815260206004820152602a60248201527f5361666545524332303a204552433230206f7065726174696f6e20646964206e6044820152691bdd081cdd58d8d9595960b21b60648201526084016102e3565b6060610d9c8484600085610da6565b90505b9392505050565b606082471015610e075760405162461bcd60e51b815260206004820152602660248201527f416464726573733a20696e73756666696369656e742062616c616e636520666f6044820152651c8818d85b1b60d21b60648201526084016102e3565b843b610e555760405162461bcd60e51b815260206004820152601d60248201527f416464726573733a2063616c6c20746f206e6f6e2d636f6e747261637400000060448201526064016102e3565b600080866001600160a01b03168587604051610e719190610f7e565b60006040518083038185875af1925050503d8060008114610eae576040519150601f19603f3d011682016040523d82523d6000602084013e610eb3565b606091505b5091509150610ec3828286610ece565b979650505050505050565b60608315610edd575081610d9f565b825115610eed5782518084602001fd5b8160405162461bcd60e51b81526004016102e39190610f9a565b600060208284031215610f18578081fd5b81356001600160a01b0381168114610d9f578182fd5b600060208284031215610f3f578081fd5b81518015158114610d9f578182fd5b600060208284031215610f5f578081fd5b5035919050565b600060208284031215610f77578081fd5b5051919050565b60008251610f9081846020870161109f565b9190910192915050565b6020815260008251806020840152610fb981604085016020870161109f565b601f01601f19169190910160400192915050565b6020808252818101527f4f776e61626c653a2063616c6c6572206973206e6f7420746865206f776e6572604082015260600190565b60208082526026908201527f4c554e4152204942434f3a206f66666572696e67206d75737420626520636f6d6040820152651c1b195d195960d21b606082015260800190565b6000821982111561105b5761105b6110cb565b500190565b60008261107b57634e487b7160e01b81526012600452602481fd5b500490565b600081600019048311821515161561109a5761109a6110cb565b500290565b60005b838110156110ba5781810151838201526020016110a2565b83811115610cb55750506000910152565b634e487b7160e01b600052601160045260246000fdfea2646970667358221220d70978e339de20dc62217f86da0f7b5327bafc2cf26a10fe62c8f9ced1da357164736f6c63430008040033",
  "devdoc": {
    "kind": "dev",
    "methods": {
      "owner()": {
        "details": "Returns the address of the current owner."
      },
      "renounceOwnership()": {
        "details": "Leaves the contract without owner. It will not be possible to call `onlyOwner` functions anymore. Can only be called by the current owner. NOTE: Renouncing ownership will leave the contract without an owner, thereby removing any functionality that is only available to the owner."
      },
      "transferOwnership(address)": {
        "details": "Transfers ownership of the contract to a new account (`newOwner`). Can only be called by the current owner."
      }
    },
    "version": 1
  },
  "userdoc": {
    "kind": "user",
    "methods": {},
    "notice": "Initial offering cotract",
    "version": 1
  },
  "storageLayout": {
    "storage": [
      {
        "astId": 330,
        "contract": "contracts/InitialOfferingERC20.sol:InitialOfferingERC20",
        "label": "_owner",
        "offset": 0,
        "slot": "0",
        "type": "t_address"
      },
      {
        "astId": 3928,
        "contract": "contracts/InitialOfferingERC20.sol:InitialOfferingERC20",
        "label": "totalProvided",
        "offset": 0,
        "slot": "1",
        "type": "t_uint256"
      },
      {
        "astId": 3932,
        "contract": "contracts/InitialOfferingERC20.sol:InitialOfferingERC20",
        "label": "provided",
        "offset": 0,
        "slot": "2",
        "type": "t_mapping(t_address,t_uint256)"
      }
    ],
    "types": {
      "t_address": {
        "encoding": "inplace",
        "label": "address",
        "numberOfBytes": "20"
      },
      "t_mapping(t_address,t_uint256)": {
        "encoding": "mapping",
        "key": "t_address",
        "label": "mapping(address => uint256)",
        "numberOfBytes": "32",
        "value": "t_uint256"
      },
      "t_uint256": {
        "encoding": "inplace",
        "label": "uint256",
        "numberOfBytes": "32"
      }
    }
  }
}